{
	"data": {
		"bytecode": {
			"linkReferences": {},
			"object": "666a94d74f430000600b556002600c819055600d805461ffff19166001908117909155600e82905560108190556011805460ff19169091179055601455610100604052604a6080818152906200319d60a0398051620000679160159160209091019062000189565b5060405180606001604052806029815260200162003174602991398051620000989160169160209091019062000189565b50348015620000a657600080fd5b50604080518082018252600381526213919560ea1b6020808301918252835180850190945260028452614c4d60f01b908401528151600a9360019385939092620000f39160009162000189565b5080516200010990600190602084019062000189565b50505062000126620001206200013360201b60201c565b62000137565b600855600a55506200026c565b3390565b600680546001600160a01b038381166001600160a01b0319831681179093556040519116919082907f8be0079c531659141344cd1fd0a4f28419497f9722a3daafe3b4186f6b6457e090600090a35050565b82805462000197906200022f565b90600052602060002090601f016020900481019282620001bb576000855562000206565b82601f10620001d657805160ff191683800117855562000206565b8280016001018555821562000206579182015b8281111562000206578251825591602001919060010190620001e9565b506200021492915062000218565b5090565b5b8082111562000214576000815560010162000219565b600181811c908216806200024457607f821691505b602082108114156200026657634e487b7160e01b600052602260045260246000fd5b50919050565b612ef8806200027c6000396000f3fe6080604052600436106102935760003560e01c8063722503801161015a578063a475b5dd116100c1578063cd22aeea1161007a578063cd22aeea146107a7578063e14ca353146107cf578063e8315742146107e4578063e985e9c5146107f9578063f2fde38b14610842578063fe60d12c1461086257600080fd5b8063a475b5dd146106ef578063b88d4fde14610704578063ba7d2c7614610724578063c4aa1c081461073a578063c87b56dd14610767578063ca8001441461078757600080fd5b80639c70b512116101135780639c70b512146106625780639f181b5e1461067c578063a035b1fe14610691578063a0712d68146106a7578063a12a52dc146106ba578063a22cb465146106cf57600080fd5b806372250380146105cf5780637f649783146105e45780638da5cb5b1461060457806395d89b411461062257806399f6516d146106375780639a2548ca1461064c57600080fd5b806342842e0e116101fe5780635c975abb116101b75780635c975abb146105235780636352211e1461053d578063671addf81461055d5780636c0360eb1461058557806370a082311461059a578063715018a6146105ba57600080fd5b806342842e0e1461045c578063428ccf681461047c57806342966c68146104a457806351830227146104c4578063548db174146104e357806355f804b31461050357600080fd5b806318160ddd1161025057806318160ddd1461039957806318cae269146103b8578063239c70ae146103e557806323b872dd146103fb5780633af32abf1461041b5780633ccfd60b1461045457600080fd5b806301ffc9a71461029857806302329a29146102cd57806306c933d8146102ef57806306fdde031461031f578063081812fc14610341578063095ea7b314610379575b600080fd5b3480156102a457600080fd5b506102b86102b336600461289c565b610878565b60405190151581526020015b60405180910390f35b3480156102d957600080fd5b506102ed6102e83660046128c9565b6108ca565b005b3480156102fb57600080fd5b506102b861030a3660046128fb565b60126020526000908152604090205460ff1681565b34801561032b57600080fd5b5061033461096a565b6040516102c4919061296e565b34801561034d57600080fd5b5061036161035c366004612981565b6109fc565b6040516001600160a01b0390911681526020016102c4565b34801561038557600080fd5b506102ed61039436600461299a565b610a91565b3480156103a557600080fd5b506008545b6040519081526020016102c4565b3480156103c457600080fd5b506103aa6103d33660046128fb565b600f6020526000908152604090205481565b3480156103f157600080fd5b506103aa600c5481565b34801561040757600080fd5b506102ed6104163660046129c4565b610ba7565b34801561042757600080fd5b506102b86104363660046128fb565b6001600160a01b031660009081526012602052604090205460ff1690565b6102ed610bd9565b34801561046857600080fd5b506102ed6104773660046129c4565b610d0a565b34801561048857600080fd5b50610361735ad4bfd038192e0385657962ecdf942fc076955981565b3480156104b057600080fd5b506102ed6104bf366004612981565b610d25565b3480156104d057600080fd5b50600d546102b890610100900460ff1681565b3480156104ef57600080fd5b506102ed6104fe366004612a00565b610d9f565b34801561050f57600080fd5b506102ed61051e366004612b01565b610e95565b34801561052f57600080fd5b50600d546102b89060ff1681565b34801561054957600080fd5b50610361610558366004612981565b610f30565b34801561056957600080fd5b5061036173fad7f421dd9b692abcaf8d2e3eba8971af1282e681565b34801561059157600080fd5b50610334610fa7565b3480156105a657600080fd5b506103aa6105b53660046128fb565b611035565b3480156105c657600080fd5b506102ed6110bb565b3480156105db57600080fd5b50610334611121565b3480156105f057600080fd5b506102ed6105ff366004612a00565b61112e565b34801561061057600080fd5b506006546001600160a01b0316610361565b34801561062e57600080fd5b50610334611310565b34801561064357600080fd5b506102ed61131f565b34801561065857600080fd5b506103aa60105481565b34801561066e57600080fd5b506011546102b89060ff1681565b34801561068857600080fd5b506103aa6113af565b34801561069d57600080fd5b506103aa600b5481565b6102ed6106b5366004612981565b6113bf565b3480156106c657600080fd5b506102ed6118c0565b3480156106db57600080fd5b506102ed6106ea366004612b4a565b6119f0565b3480156106fb57600080fd5b506102ed6119fb565b34801561071057600080fd5b506102ed61071f366004612b7d565b611a90565b34801561073057600080fd5b506103aa600e5481565b34801561074657600080fd5b506103aa6107553660046128fb565b60136020526000908152604090205481565b34801561077357600080fd5b50610334610782366004612981565b611ac2565b34801561079357600080fd5b506102ed6107a236600461299a565b611c36565b3480156107b357600080fd5b50610361733e7bdf96755e32e728d79806c949db9ed10ee91781565b3480156107db57600080fd5b506103aa611d5c565b3480156107f057600080fd5b506103aa600a81565b34801561080557600080fd5b506102b8610814366004612bf9565b6001600160a01b03918216600090815260056020908152604080832093909416825291909152205460ff1690565b34801561084e57600080fd5b506102ed61085d3660046128fb565b611d73565b34801561086e57600080fd5b506103aa60145481565b60006001600160e01b031982166380ac58cd60e01b14806108a957506001600160e01b03198216635b5e139f60e01b145b806108c457506301ffc9a760e01b6001600160e01b03198316145b92915050565b33733e7bdf96755e32e728d79806c949db9ed10ee91714806108ff57503373fad7f421dd9b692abcaf8d2e3eba8971af1282e6145b8061091d575033735ad4bfd038192e0385657962ecdf942fc0769559145b8061093257506006546001600160a01b031633145b6109575760405162461bcd60e51b815260040161094e90612c23565b60405180910390fd5b600d805460ff1916911515919091179055565b60606000805461097990612c4c565b80601f01602080910402602001604051908101604052809291908181526020018280546109a590612c4c565b80156109f25780601f106109c7576101008083540402835291602001916109f2565b820191906000526020600020905b8154815290600101906020018083116109d557829003601f168201915b5050505050905090565b6000818152600260205260408120546001600160a01b0316610a755760405162461bcd60e51b815260206004820152602c60248201527f4552433732313a20617070726f76656420717565727920666f72206e6f6e657860448201526b34b9ba32b73a103a37b5b2b760a11b606482015260840161094e565b506000908152600460205260409020546001600160a01b031690565b6000610a9c82610f30565b9050806001600160a01b0316836001600160a01b03161415610b0a5760405162461bcd60e51b815260206004820152602160248201527f4552433732313a20617070726f76616c20746f2063757272656e74206f776e656044820152603960f91b606482015260840161094e565b336001600160a01b0382161480610b265750610b268133610814565b610b985760405162461bcd60e51b815260206004820152603860248201527f4552433732313a20617070726f76652063616c6c6572206973206e6f74206f7760448201527f6e6572206e6f7220617070726f76656420666f7220616c6c0000000000000000606482015260840161094e565b610ba28383611e3b565b505050565b610bb2335b82611ea9565b610bce5760405162461bcd60e51b815260040161094e90612c87565b610ba2838383611fa0565b33733e7bdf96755e32e728d79806c949db9ed10ee9171480610c0e57503373fad7f421dd9b692abcaf8d2e3eba8971af1282e6145b80610c2c575033735ad4bfd038192e0385657962ecdf942fc0769559145b80610c4157506006546001600160a01b031633145b610c5d5760405162461bcd60e51b815260040161094e90612c23565b4780610c6857600080fd5b6000610c806064610c7a84604661213c565b90612148565b90506000610c946064610c7a85601461213c565b90506000610ca86064610c7a86600a61213c565b9050610cc8733e7bdf96755e32e728d79806c949db9ed10ee91784612154565b610ce673fad7f421dd9b692abcaf8d2e3eba8971af1282e683612154565b610d04735ad4bfd038192e0385657962ecdf942fc076955982612154565b50505050565b610ba283838360405180602001604052806000815250611a90565b610d2e33610bac565b610d935760405162461bcd60e51b815260206004820152603060248201527f4552433732314275726e61626c653a2063616c6c6572206973206e6f74206f7760448201526f1b995c881b9bdc88185c1c1c9bdd995960821b606482015260840161094e565b610d9c8161218a565b50565b33733e7bdf96755e32e728d79806c949db9ed10ee9171480610dd457503373fad7f421dd9b692abcaf8d2e3eba8971af1282e6145b80610df2575033735ad4bfd038192e0385657962ecdf942fc0769559145b80610e0757506006546001600160a01b031633145b610e235760405162461bcd60e51b815260040161094e90612c23565b60005b81811015610ba257600060126000858585818110610e4657610e46612cd8565b9050602002016020810190610e5b91906128fb565b6001600160a01b031681526020810191909152604001600020805460ff191691151591909117905580610e8d81612d04565b915050610e26565b33733e7bdf96755e32e728d79806c949db9ed10ee9171480610eca57503373fad7f421dd9b692abcaf8d2e3eba8971af1282e6145b80610ee8575033735ad4bfd038192e0385657962ecdf942fc0769559145b80610efd57506006546001600160a01b031633145b610f195760405162461bcd60e51b815260040161094e90612c23565b8051610f2c9060169060208401906127ce565b5050565b6000818152600260205260408120546001600160a01b0316806108c45760405162461bcd60e51b815260206004820152602960248201527f4552433732313a206f776e657220717565727920666f72206e6f6e657869737460448201526832b73a103a37b5b2b760b91b606482015260840161094e565b60168054610fb490612c4c565b80601f0160208091040260200160405190810160405280929190818152602001828054610fe090612c4c565b801561102d5780601f106110025761010080835404028352916020019161102d565b820191906000526020600020905b81548152906001019060200180831161101057829003601f168201915b505050505081565b60006001600160a01b03821661109f5760405162461bcd60e51b815260206004820152602960248201527f4552433732313a2061646472657373207a65726f206973206e6f7420612076616044820152683634b21037bbb732b960b91b606482015260840161094e565b506001600160a01b031660009081526003602052604090205490565b6006546001600160a01b031633146111155760405162461bcd60e51b815260206004820181905260248201527f4f776e61626c653a2063616c6c6572206973206e6f7420746865206f776e6572604482015260640161094e565b61111f6000612225565b565b60158054610fb490612c4c565b33733e7bdf96755e32e728d79806c949db9ed10ee917148061116357503373fad7f421dd9b692abcaf8d2e3eba8971af1282e6145b80611181575033735ad4bfd038192e0385657962ecdf942fc0769559145b8061119657506006546001600160a01b031633145b6111b25760405162461bcd60e51b815260040161094e90612c23565b60005b81811015610ba2576001601260008585858181106111d5576111d5612cd8565b90506020020160208101906111ea91906128fb565b6001600160a01b0316815260208101919091526040016000908120805460ff19169215159290921790915560138185858581811061122a5761122a612cd8565b905060200201602081019061123f91906128fb565b6001600160a01b03166001600160a01b03168152602001908152602001600020541161126c5760006112b9565b6013600084848481811061128257611282612cd8565b905060200201602081019061129791906128fb565b6001600160a01b03166001600160a01b03168152602001908152602001600020545b601360008585858181106112cf576112cf612cd8565b90506020020160208101906112e491906128fb565b6001600160a01b031681526020810191909152604001600020558061130881612d04565b9150506111b5565b60606001805461097990612c4c565b33733e7bdf96755e32e728d79806c949db9ed10ee917148061135457503373fad7f421dd9b692abcaf8d2e3eba8971af1282e6145b80611372575033735ad4bfd038192e0385657962ecdf942fc0769559145b8061138757506006546001600160a01b031633145b6113a35760405162461bcd60e51b815260040161094e90612c23565b6011805460ff19169055565b60006113ba60075490565b905090565b6008546113ca6113af565b11156114055760405162461bcd60e51b815260206004820152600a60248201526914d85b1948195b99195960b21b604482015260640161094e565b600d5460ff16156114515760405162461bcd60e51b8152602060048201526016602482015275151a194818dbdb9d1c9858dd081a5cc81c185d5cd95960521b604482015260640161094e565b600854601454826114606113af565b61146a9190612d1f565b6114749190612d1f565b11156114d65760405162461bcd60e51b815260206004820152602b60248201527f596f752063616e2774206d696e74206d6f7265207468616e20746865206d617860448201526a696d756d20737570706c7960a81b606482015260840161094e565b600060016114e2611d5c565b6114ec9190612d37565b10156115555760405162461bcd60e51b815260206004820152603260248201527f596f752063616e2774206d696e74206d6f7265207468616e20746865206176616044820152711a5b18589b19481d1bdad95b8818dbdd5b9d60721b606482015260840161094e565b3233146115b25760405162461bcd60e51b815260206004820152602560248201527f43616e6e6f74206d696e74207468726f756768206120637573746f6d20636f6e6044820152641d1c9858dd60da1b606482015260840161094e565b600081116116025760405162461bcd60e51b815260206004820152601b60248201527f4e65656420746f206d696e74206174206c656173742031204e46540000000000604482015260640161094e565b600c548111156116655760405162461bcd60e51b815260206004820152602860248201527f4d6178696d756d206d696e7420616d6f756e74207065722073657373696f6e20604482015267195e18d95959195960c21b606482015260840161094e565b600e54336000908152600f6020526040902054611683908390612d1f565b11156116d15760405162461bcd60e51b815260206004820152601c60248201527f4d6178204e465420706572206164647265737320657863656564656400000000604482015260640161094e565b6006546001600160a01b031633146118415760115460ff16156117ef573360009081526012602052604090205460ff1661174d5760405162461bcd60e51b815260206004820152601760248201527f55736572206973206e6f742077686974656c6973746564000000000000000000604482015260640161094e565b6010543360009081526013602052604090205461176b908390612d1f565b11156117ca5760405162461bcd60e51b815260206004820152602860248201527f4d6178204e4654207065722077686974656c6973746564206164647265737320604482015267195e18d95959195960c21b606482015260840161094e565b33600090815260136020526040812080548392906117e9908490612d1f565b90915550505b80600b546117fd9190612d4e565b3410156118415760405162461bcd60e51b8152602060048201526012602482015271496e73756666696369656e742066756e647360701b604482015260640161094e565b60005b81811015610f2c57336000908152600f6020526040812080549161186783612d04565b91905055506000611876612277565b9050611882338261240f565b60405181907f5871761b381266e7e47309f0821d5b396364ebb6371d878871cac5393cb93ea890600090a250806118b881612d04565b915050611844565b33733e7bdf96755e32e728d79806c949db9ed10ee91714806118f557503373fad7f421dd9b692abcaf8d2e3eba8971af1282e6145b80611913575033735ad4bfd038192e0385657962ecdf942fc0769559145b8061192857506006546001600160a01b031633145b6119445760405162461bcd60e51b815260040161094e90612c23565b61194c612852565b60015b600a81116119b5576000818152600260205260409020546001600160a01b0316156119a35761197d81610f30565b8282600b811061198f5761198f612cd8565b6001600160a01b0390921660209290920201525b806119ad81612d04565b91505061194f565b507faa6dc7310ee4c494df5b5c3917c78cead1d9858768a6789d5fa8c05ba2e6c515816040516119e59190612d6d565b60405180910390a150565b610f2c338383612429565b33733e7bdf96755e32e728d79806c949db9ed10ee9171480611a3057503373fad7f421dd9b692abcaf8d2e3eba8971af1282e6145b80611a4e575033735ad4bfd038192e0385657962ecdf942fc0769559145b80611a6357506006546001600160a01b031633145b611a7f5760405162461bcd60e51b815260040161094e90612c23565b600d805461ff001916610100179055565b611a9a3383611ea9565b611ab65760405162461bcd60e51b815260040161094e90612c87565b610d04848484846124f8565b6000818152600260205260409020546060906001600160a01b0316611b415760405162461bcd60e51b815260206004820152602f60248201527f4552433732314d657461646174613a2055524920717565727920666f72206e6f60448201526e3732bc34b9ba30b73a103a37b5b2b760891b606482015260840161094e565b600d54610100900460ff16611be25760158054611b5d90612c4c565b80601f0160208091040260200160405190810160405280929190818152602001828054611b8990612c4c565b8015611bd65780601f10611bab57610100808354040283529160200191611bd6565b820191906000526020600020905b815481529060010190602001808311611bb957829003601f168201915b50505050509050919050565b6000611bec61252b565b90506000815111611c0c5760405180602001604052806000815250611c2f565b8083604051602001611c1f929190612da8565b6040516020818303038152906040525b9392505050565b33733e7bdf96755e32e728d79806c949db9ed10ee9171480611c6b57503373fad7f421dd9b692abcaf8d2e3eba8971af1282e6145b80611c89575033735ad4bfd038192e0385657962ecdf942fc0769559145b80611c9e57506006546001600160a01b031633145b611cba5760405162461bcd60e51b815260040161094e90612c23565b601454811115611d0c5760405162461bcd60e51b815260206004820152601d60248201527f4578636565646573207265736572766564204e46547320737570706c79000000604482015260640161094e565b60005b81811015611d40576000611d21612277565b9050611d2d848261240f565b5080611d3881612d04565b915050611d0f565b508060146000828254611d539190612d37565b90915550505050565b6000611d666113af565b6008546113ba9190612d37565b6006546001600160a01b03163314611dcd5760405162461bcd60e51b815260206004820181905260248201527f4f776e61626c653a2063616c6c6572206973206e6f7420746865206f776e6572604482015260640161094e565b6001600160a01b038116611e325760405162461bcd60e51b815260206004820152602660248201527f4f776e61626c653a206e6577206f776e657220697320746865207a65726f206160448201526564647265737360d01b606482015260840161094e565b610d9c81612225565b600081815260046020526040902080546001600160a01b0319166001600160a01b0384169081179091558190611e7082610f30565b6001600160a01b03167f8c5be1e5ebec7d5bd14f71427d1e84f3dd0314c0f7b2291e5b200ac8c7c3b92560405160405180910390a45050565b6000818152600260205260408120546001600160a01b0316611f225760405162461bcd60e51b815260206004820152602c60248201527f4552433732313a206f70657261746f7220717565727920666f72206e6f6e657860448201526b34b9ba32b73a103a37b5b2b760a11b606482015260840161094e565b6000611f2d83610f30565b9050806001600160a01b0316846001600160a01b03161480611f7457506001600160a01b0380821660009081526005602090815260408083209388168352929052205460ff165b80611f985750836001600160a01b0316611f8d846109fc565b6001600160a01b0316145b949350505050565b826001600160a01b0316611fb382610f30565b6001600160a01b0316146120175760405162461bcd60e51b815260206004820152602560248201527f4552433732313a207472616e736665722066726f6d20696e636f72726563742060448201526437bbb732b960d91b606482015260840161094e565b6001600160a01b0382166120795760405162461bcd60e51b8152602060048201526024808201527f4552433732313a207472616e7366657220746f20746865207a65726f206164646044820152637265737360e01b606482015260840161094e565b612084600082611e3b565b6001600160a01b03831660009081526003602052604081208054600192906120ad908490612d37565b90915550506001600160a01b03821660009081526003602052604081208054600192906120db908490612d1f565b909155505060008181526002602052604080822080546001600160a01b0319166001600160a01b0386811691821790925591518493918716917fddf252ad1be2c89b69c2b068fc378daa952ba7f163c4a11628f55a4df523b3ef91a4505050565b6000611c2f8284612d4e565b6000611c2f8284612dee565b6040516001600160a01b0383169082156108fc029083906000818181858888f19350505050158015610ba2573d6000803e3d6000fd5b600061219582610f30565b90506121a2600083611e3b565b6001600160a01b03811660009081526003602052604081208054600192906121cb908490612d37565b909155505060008281526002602052604080822080546001600160a01b0319169055518391906001600160a01b038416907fddf252ad1be2c89b69c2b068fc378daa952ba7f163c4a11628f55a4df523b3ef908390a45050565b600680546001600160a01b038381166001600160a01b0319831681179093556040519116919082907f8be0079c531659141344cd1fd0a4f28419497f9722a3daafe3b4186f6b6457e090600090a35050565b600080612282611d5c565b116122cf5760405162461bcd60e51b815260206004820152601860248201527f4e6f206d6f726520746f6b656e7320617661696c61626c650000000000000000604482015260640161094e565b60006122d96113af565b6008546122e69190612d37565b6040516bffffffffffffffffffffffff1933606090811b8216602084015241901b166034820152446048820152456068820152426088820152909150600090829060a8016040516020818303038152906040528051906020012060001c61234d9190612e02565b6000818152600960205260408120549192509061236b57508061237c565b506000818152600960205260409020545b6009600061238b600186612d37565b815260200190815260200160002054600014156123c1576123ad600184612d37565b6000838152600960205260409020556123f1565b600960006123d0600186612d37565b81526020808201929092526040908101600090812054858252600990935220555b6123f961253a565b50600a546124079082612d1f565b935050505090565b610f2c82826040518060200160405280600081525061255b565b816001600160a01b0316836001600160a01b0316141561248b5760405162461bcd60e51b815260206004820152601960248201527f4552433732313a20617070726f766520746f2063616c6c657200000000000000604482015260640161094e565b6001600160a01b03838116600081815260056020908152604080832094871680845294825291829020805460ff191686151590811790915591519182527f17307eab39ab6107e8899845ad3d59bd9653f200f220920489ca2b5937696c31910160405180910390a3505050565b612503848484611fa0565b61250f8484848461258e565b610d045760405162461bcd60e51b815260040161094e90612e16565b60606016805461097990612c4c565b60008061254660075490565b9050612556600780546001019055565b919050565b612565838361268c565b612572600084848461258e565b610ba25760405162461bcd60e51b815260040161094e90612e16565b60006001600160a01b0384163b1561268157604051630a85bd0160e11b81526001600160a01b0385169063150b7a02906125d2903390899088908890600401612e68565b6020604051808303816000875af192505050801561260d575060408051601f3d908101601f1916820190925261260a91810190612ea5565b60015b612667573d80801561263b576040519150601f19603f3d011682016040523d82523d6000602084013e612640565b606091505b50805161265f5760405162461bcd60e51b815260040161094e90612e16565b805181602001fd5b6001600160e01b031916630a85bd0160e11b149050611f98565b506001949350505050565b6001600160a01b0382166126e25760405162461bcd60e51b815260206004820181905260248201527f4552433732313a206d696e7420746f20746865207a65726f2061646472657373604482015260640161094e565b6000818152600260205260409020546001600160a01b0316156127475760405162461bcd60e51b815260206004820152601c60248201527f4552433732313a20746f6b656e20616c7265616479206d696e74656400000000604482015260640161094e565b6001600160a01b0382166000908152600360205260408120805460019290612770908490612d1f565b909155505060008181526002602052604080822080546001600160a01b0319166001600160a01b03861690811790915590518392907fddf252ad1be2c89b69c2b068fc378daa952ba7f163c4a11628f55a4df523b3ef908290a45050565b8280546127da90612c4c565b90600052602060002090601f0160209004810192826127fc5760008555612842565b82601f1061281557805160ff1916838001178555612842565b82800160010185558215612842579182015b82811115612842578251825591602001919060010190612827565b5061284e929150612871565b5090565b604051806101600160405280600b906020820280368337509192915050565b5b8082111561284e5760008155600101612872565b6001600160e01b031981168114610d9c57600080fd5b6000602082840312156128ae57600080fd5b8135611c2f81612886565b8035801515811461255657600080fd5b6000602082840312156128db57600080fd5b611c2f826128b9565b80356001600160a01b038116811461255657600080fd5b60006020828403121561290d57600080fd5b611c2f826128e4565b60005b83811015612931578181015183820152602001612919565b83811115610d045750506000910152565b6000815180845261295a816020860160208601612916565b601f01601f19169290920160200192915050565b602081526000611c2f6020830184612942565b60006020828403121561299357600080fd5b5035919050565b600080604083850312156129ad57600080fd5b6129b6836128e4565b946020939093013593505050565b6000806000606084860312156129d957600080fd5b6129e2846128e4565b92506129f0602085016128e4565b9150604084013590509250925092565b60008060208385031215612a1357600080fd5b823567ffffffffffffffff80821115612a2b57600080fd5b818501915085601f830112612a3f57600080fd5b813581811115612a4e57600080fd5b8660208260051b8501011115612a6357600080fd5b60209290920196919550909350505050565b634e487b7160e01b600052604160045260246000fd5b600067ffffffffffffffff80841115612aa657612aa6612a75565b604051601f8501601f19908116603f01168101908282118183101715612ace57612ace612a75565b81604052809350858152868686011115612ae757600080fd5b858560208301376000602087830101525050509392505050565b600060208284031215612b1357600080fd5b813567ffffffffffffffff811115612b2a57600080fd5b8201601f81018413612b3b57600080fd5b611f9884823560208401612a8b565b60008060408385031215612b5d57600080fd5b612b66836128e4565b9150612b74602084016128b9565b90509250929050565b60008060008060808587031215612b9357600080fd5b612b9c856128e4565b9350612baa602086016128e4565b925060408501359150606085013567ffffffffffffffff811115612bcd57600080fd5b8501601f81018713612bde57600080fd5b612bed87823560208401612a8b565b91505092959194509250565b60008060408385031215612c0c57600080fd5b612c15836128e4565b9150612b74602084016128e4565b6020808252600f908201526e4e6f7420617574686f72697a65642160881b604082015260600190565b600181811c90821680612c6057607f821691505b60208210811415612c8157634e487b7160e01b600052602260045260246000fd5b50919050565b60208082526031908201527f4552433732313a207472616e736665722063616c6c6572206973206e6f74206f6040820152701ddb995c881b9bdc88185c1c1c9bdd9959607a1b606082015260800190565b634e487b7160e01b600052603260045260246000fd5b634e487b7160e01b600052601160045260246000fd5b6000600019821415612d1857612d18612cee565b5060010190565b60008219821115612d3257612d32612cee565b500190565b600082821015612d4957612d49612cee565b500390565b6000816000190483118215151615612d6857612d68612cee565b500290565b6101608101818360005b600b811015612d9f5781516001600160a01b0316835260209283019290910190600101612d77565b50505092915050565b60008351612dba818460208801612916565b919091019182525064173539b7b760d91b6020820152602501919050565b634e487b7160e01b600052601260045260246000fd5b600082612dfd57612dfd612dd8565b500490565b600082612e1157612e11612dd8565b500690565b60208082526032908201527f4552433732313a207472616e7366657220746f206e6f6e20455243373231526560408201527131b2b4bb32b91034b6b83632b6b2b73a32b960711b606082015260800190565b6001600160a01b0385811682528416602082015260408101839052608060608201819052600090612e9b90830184612942565b9695505050505050565b600060208284031215612eb757600080fd5b8151611c2f8161288656fea26469706673582212207383bca868ce074d4247d28d17def7056304530309f1a6ebb624c240c96b8a0164736f6c634300080c003368747470733a2f2f6e65726479636f646572636c6f6e65732e6f6e6c696e652f6d657465646174612f68747470733a2f2f697066732e696f2f697066732f516d58724147677559444a316e487653464e595937453676714b39796137317a644471553948756e4257485636622f312e6a736f6e",
			"opcodes": "PUSH7 0x6A94D74F430000 PUSH1 0xB SSTORE PUSH1 0x2 PUSH1 0xC DUP2 SWAP1 SSTORE PUSH1 0xD DUP1 SLOAD PUSH2 0xFFFF NOT AND PUSH1 0x1 SWAP1 DUP2 OR SWAP1 SWAP2 SSTORE PUSH1 0xE DUP3 SWAP1 SSTORE PUSH1 0x10 DUP2 SWAP1 SSTORE PUSH1 0x11 DUP1 SLOAD PUSH1 0xFF NOT AND SWAP1 SWAP2 OR SWAP1 SSTORE PUSH1 0x14 SSTORE PUSH2 0x100 PUSH1 0x40 MSTORE PUSH1 0x4A PUSH1 0x80 DUP2 DUP2 MSTORE SWAP1 PUSH3 0x319D PUSH1 0xA0 CODECOPY DUP1 MLOAD PUSH3 0x67 SWAP2 PUSH1 0x15 SWAP2 PUSH1 0x20 SWAP1 SWAP2 ADD SWAP1 PUSH3 0x189 JUMP JUMPDEST POP PUSH1 0x40 MLOAD DUP1 PUSH1 0x60 ADD PUSH1 0x40 MSTORE DUP1 PUSH1 0x29 DUP2 MSTORE PUSH1 0x20 ADD PUSH3 0x3174 PUSH1 0x29 SWAP2 CODECOPY DUP1 MLOAD PUSH3 0x98 SWAP2 PUSH1 0x16 SWAP2 PUSH1 0x20 SWAP1 SWAP2 ADD SWAP1 PUSH3 0x189 JUMP JUMPDEST POP CALLVALUE DUP1 ISZERO PUSH3 0xA6 JUMPI PUSH1 0x0 DUP1 REVERT JUMPDEST POP PUSH1 0x40 DUP1 MLOAD DUP1 DUP3 ADD DUP3 MSTORE PUSH1 0x3 DUP2 MSTORE PUSH3 0x139195 PUSH1 0xEA SHL PUSH1 0x20 DUP1 DUP4 ADD SWAP2 DUP3 MSTORE DUP4 MLOAD DUP1 DUP6 ADD SWAP1 SWAP5 MSTORE PUSH1 0x2 DUP5 MSTORE PUSH2 0x4C4D PUSH1 0xF0 SHL SWAP1 DUP5 ADD MSTORE DUP2 MLOAD PUSH1 0xA SWAP4 PUSH1 0x1 SWAP4 DUP6 SWAP4 SWAP1 SWAP3 PUSH3 0xF3 SWAP2 PUSH1 0x0 SWAP2 PUSH3 0x189 JUMP JUMPDEST POP DUP1 MLOAD PUSH3 0x109 SWAP1 PUSH1 0x1 SWAP1 PUSH1 0x20 DUP5 ADD SWAP1 PUSH3 0x189 JUMP JUMPDEST POP POP POP PUSH3 0x126 PUSH3 0x120 PUSH3 0x133 PUSH1 0x20 SHL PUSH1 0x20 SHR JUMP JUMPDEST PUSH3 0x137 JUMP JUMPDEST PUSH1 0x8 SSTORE PUSH1 0xA SSTORE POP PUSH3 0x26C JUMP JUMPDEST CALLER SWAP1 JUMP JUMPDEST PUSH1 0x6 DUP1 SLOAD PUSH1 0x1 PUSH1 0x1 PUSH1 0xA0 SHL SUB DUP4 DUP2 AND PUSH1 0x1 PUSH1 0x1 PUSH1 0xA0 SHL SUB NOT DUP4 AND DUP2 OR SWAP1 SWAP4 SSTORE PUSH1 0x40 MLOAD SWAP2 AND SWAP2 SWAP1 DUP3 SWAP1 PUSH32 0x8BE0079C531659141344CD1FD0A4F28419497F9722A3DAAFE3B4186F6B6457E0 SWAP1 PUSH1 0x0 SWAP1 LOG3 POP POP JUMP JUMPDEST DUP3 DUP1 SLOAD PUSH3 0x197 SWAP1 PUSH3 0x22F JUMP JUMPDEST SWAP1 PUSH1 0x0 MSTORE PUSH1 0x20 PUSH1 0x0 KECCAK256 SWAP1 PUSH1 0x1F ADD PUSH1 0x20 SWAP1 DIV DUP2 ADD SWAP3 DUP3 PUSH3 0x1BB JUMPI PUSH1 0x0 DUP6 SSTORE PUSH3 0x206 JUMP JUMPDEST DUP3 PUSH1 0x1F LT PUSH3 0x1D6 JUMPI DUP1 MLOAD PUSH1 0xFF NOT AND DUP4 DUP1 ADD OR DUP6 SSTORE PUSH3 0x206 JUMP JUMPDEST DUP3 DUP1 ADD PUSH1 0x1 ADD DUP6 SSTORE DUP3 ISZERO PUSH3 0x206 JUMPI SWAP2 DUP3 ADD JUMPDEST DUP3 DUP2 GT ISZERO PUSH3 0x206 JUMPI DUP3 MLOAD DUP3 SSTORE SWAP2 PUSH1 0x20 ADD SWAP2 SWAP1 PUSH1 0x1 ADD SWAP1 PUSH3 0x1E9 JUMP JUMPDEST POP PUSH3 0x214 SWAP3 SWAP2 POP PUSH3 0x218 JUMP JUMPDEST POP SWAP1 JUMP JUMPDEST JUMPDEST DUP1 DUP3 GT ISZERO PUSH3 0x214 JUMPI PUSH1 0x0 DUP2 SSTORE PUSH1 0x1 ADD PUSH3 0x219 JUMP JUMPDEST PUSH1 0x1 DUP2 DUP2 SHR SWAP1 DUP3 AND DUP1 PUSH3 0x244 JUMPI PUSH1 0x7F DUP3 AND SWAP2 POP JUMPDEST PUSH1 0x20 DUP3 LT DUP2 EQ ISZERO PUSH3 0x266 JUMPI PUSH4 0x4E487B71 PUSH1 0xE0 SHL PUSH1 0x0 MSTORE PUSH1 0x22 PUSH1 0x4 MSTORE PUSH1 0x24 PUSH1 0x0 REVERT JUMPDEST POP SWAP2 SWAP1 POP JUMP JUMPDEST PUSH2 0x2EF8 DUP1 PUSH3 0x27C PUSH1 0x0 CODECOPY PUSH1 0x0 RETURN INVALID PUSH1 0x80 PUSH1 0x40 MSTORE PUSH1 0x4 CALLDATASIZE LT PUSH2 0x293 JUMPI PUSH1 0x0 CALLDATALOAD PUSH1 0xE0 SHR DUP1 PUSH4 0x72250380 GT PUSH2 0x15A JUMPI DUP1 PUSH4 0xA475B5DD GT PUSH2 0xC1 JUMPI DUP1 PUSH4 0xCD22AEEA GT PUSH2 0x7A JUMPI DUP1 PUSH4 0xCD22AEEA EQ PUSH2 0x7A7 JUMPI DUP1 PUSH4 0xE14CA353 EQ PUSH2 0x7CF JUMPI DUP1 PUSH4 0xE8315742 EQ PUSH2 0x7E4 JUMPI DUP1 PUSH4 0xE985E9C5 EQ PUSH2 0x7F9 JUMPI DUP1 PUSH4 0xF2FDE38B EQ PUSH2 0x842 JUMPI DUP1 PUSH4 0xFE60D12C EQ PUSH2 0x862 JUMPI PUSH1 0x0 DUP1 REVERT JUMPDEST DUP1 PUSH4 0xA475B5DD EQ PUSH2 0x6EF JUMPI DUP1 PUSH4 0xB88D4FDE EQ PUSH2 0x704 JUMPI DUP1 PUSH4 0xBA7D2C76 EQ PUSH2 0x724 JUMPI DUP1 PUSH4 0xC4AA1C08 EQ PUSH2 0x73A JUMPI DUP1 PUSH4 0xC87B56DD EQ PUSH2 0x767 JUMPI DUP1 PUSH4 0xCA800144 EQ PUSH2 0x787 JUMPI PUSH1 0x0 DUP1 REVERT JUMPDEST DUP1 PUSH4 0x9C70B512 GT PUSH2 0x113 JUMPI DUP1 PUSH4 0x9C70B512 EQ PUSH2 0x662 JUMPI DUP1 PUSH4 0x9F181B5E EQ PUSH2 0x67C JUMPI DUP1 PUSH4 0xA035B1FE EQ PUSH2 0x691 JUMPI DUP1 PUSH4 0xA0712D68 EQ PUSH2 0x6A7 JUMPI DUP1 PUSH4 0xA12A52DC EQ PUSH2 0x6BA JUMPI DUP1 PUSH4 0xA22CB465 EQ PUSH2 0x6CF JUMPI PUSH1 0x0 DUP1 REVERT JUMPDEST DUP1 PUSH4 0x72250380 EQ PUSH2 0x5CF JUMPI DUP1 PUSH4 0x7F649783 EQ PUSH2 0x5E4 JUMPI DUP1 PUSH4 0x8DA5CB5B EQ PUSH2 0x604 JUMPI DUP1 PUSH4 0x95D89B41 EQ PUSH2 0x622 JUMPI DUP1 PUSH4 0x99F6516D EQ PUSH2 0x637 JUMPI DUP1 PUSH4 0x9A2548CA EQ PUSH2 0x64C JUMPI PUSH1 0x0 DUP1 REVERT JUMPDEST DUP1 PUSH4 0x42842E0E GT PUSH2 0x1FE JUMPI DUP1 PUSH4 0x5C975ABB GT PUSH2 0x1B7 JUMPI DUP1 PUSH4 0x5C975ABB EQ PUSH2 0x523 JUMPI DUP1 PUSH4 0x6352211E EQ PUSH2 0x53D JUMPI DUP1 PUSH4 0x671ADDF8 EQ PUSH2 0x55D JUMPI DUP1 PUSH4 0x6C0360EB EQ PUSH2 0x585 JUMPI DUP1 PUSH4 0x70A08231 EQ PUSH2 0x59A JUMPI DUP1 PUSH4 0x715018A6 EQ PUSH2 0x5BA JUMPI PUSH1 0x0 DUP1 REVERT JUMPDEST DUP1 PUSH4 0x42842E0E EQ PUSH2 0x45C JUMPI DUP1 PUSH4 0x428CCF68 EQ PUSH2 0x47C JUMPI DUP1 PUSH4 0x42966C68 EQ PUSH2 0x4A4 JUMPI DUP1 PUSH4 0x51830227 EQ PUSH2 0x4C4 JUMPI DUP1 PUSH4 0x548DB174 EQ PUSH2 0x4E3 JUMPI DUP1 PUSH4 0x55F804B3 EQ PUSH2 0x503 JUMPI PUSH1 0x0 DUP1 REVERT JUMPDEST DUP1 PUSH4 0x18160DDD GT PUSH2 0x250 JUMPI DUP1 PUSH4 0x18160DDD EQ PUSH2 0x399 JUMPI DUP1 PUSH4 0x18CAE269 EQ PUSH2 0x3B8 JUMPI DUP1 PUSH4 0x239C70AE EQ PUSH2 0x3E5 JUMPI DUP1 PUSH4 0x23B872DD EQ PUSH2 0x3FB JUMPI DUP1 PUSH4 0x3AF32ABF EQ PUSH2 0x41B JUMPI DUP1 PUSH4 0x3CCFD60B EQ PUSH2 0x454 JUMPI PUSH1 0x0 DUP1 REVERT JUMPDEST DUP1 PUSH4 0x1FFC9A7 EQ PUSH2 0x298 JUMPI DUP1 PUSH4 0x2329A29 EQ PUSH2 0x2CD JUMPI DUP1 PUSH4 0x6C933D8 EQ PUSH2 0x2EF JUMPI DUP1 PUSH4 0x6FDDE03 EQ PUSH2 0x31F JUMPI DUP1 PUSH4 0x81812FC EQ PUSH2 0x341 JUMPI DUP1 PUSH4 0x95EA7B3 EQ PUSH2 0x379 JUMPI JUMPDEST PUSH1 0x0 DUP1 REVERT JUMPDEST CALLVALUE DUP1 ISZERO PUSH2 0x2A4 JUMPI PUSH1 0x0 DUP1 REVERT JUMPDEST POP PUSH2 0x2B8 PUSH2 0x2B3 CALLDATASIZE PUSH1 0x4 PUSH2 0x289C JUMP JUMPDEST PUSH2 0x878 JUMP JUMPDEST PUSH1 0x40 MLOAD SWAP1 ISZERO ISZERO DUP2 MSTORE PUSH1 0x20 ADD JUMPDEST PUSH1 0x40 MLOAD DUP1 SWAP2 SUB SWAP1 RETURN JUMPDEST CALLVALUE DUP1 ISZERO PUSH2 0x2D9 JUMPI PUSH1 0x0 DUP1 REVERT JUMPDEST POP PUSH2 0x2ED PUSH2 0x2E8 CALLDATASIZE PUSH1 0x4 PUSH2 0x28C9 JUMP JUMPDEST PUSH2 0x8CA JUMP JUMPDEST STOP JUMPDEST CALLVALUE DUP1 ISZERO PUSH2 0x2FB JUMPI PUSH1 0x0 DUP1 REVERT JUMPDEST POP PUSH2 0x2B8 PUSH2 0x30A CALLDATASIZE PUSH1 0x4 PUSH2 0x28FB JUMP JUMPDEST PUSH1 0x12 PUSH1 0x20 MSTORE PUSH1 0x0 SWAP1 DUP2 MSTORE PUSH1 0x40 SWAP1 KECCAK256 SLOAD PUSH1 0xFF AND DUP2 JUMP JUMPDEST CALLVALUE DUP1 ISZERO PUSH2 0x32B JUMPI PUSH1 0x0 DUP1 REVERT JUMPDEST POP PUSH2 0x334 PUSH2 0x96A JUMP JUMPDEST PUSH1 0x40 MLOAD PUSH2 0x2C4 SWAP2 SWAP1 PUSH2 0x296E JUMP JUMPDEST CALLVALUE DUP1 ISZERO PUSH2 0x34D JUMPI PUSH1 0x0 DUP1 REVERT JUMPDEST POP PUSH2 0x361 PUSH2 0x35C CALLDATASIZE PUSH1 0x4 PUSH2 0x2981 JUMP JUMPDEST PUSH2 0x9FC JUMP JUMPDEST PUSH1 0x40 MLOAD PUSH1 0x1 PUSH1 0x1 PUSH1 0xA0 SHL SUB SWAP1 SWAP2 AND DUP2 MSTORE PUSH1 0x20 ADD PUSH2 0x2C4 JUMP JUMPDEST CALLVALUE DUP1 ISZERO PUSH2 0x385 JUMPI PUSH1 0x0 DUP1 REVERT JUMPDEST POP PUSH2 0x2ED PUSH2 0x394 CALLDATASIZE PUSH1 0x4 PUSH2 0x299A JUMP JUMPDEST PUSH2 0xA91 JUMP JUMPDEST CALLVALUE DUP1 ISZERO PUSH2 0x3A5 JUMPI PUSH1 0x0 DUP1 REVERT JUMPDEST POP PUSH1 0x8 SLOAD JUMPDEST PUSH1 0x40 MLOAD SWAP1 DUP2 MSTORE PUSH1 0x20 ADD PUSH2 0x2C4 JUMP JUMPDEST CALLVALUE DUP1 ISZERO PUSH2 0x3C4 JUMPI PUSH1 0x0 DUP1 REVERT JUMPDEST POP PUSH2 0x3AA PUSH2 0x3D3 CALLDATASIZE PUSH1 0x4 PUSH2 0x28FB JUMP JUMPDEST PUSH1 0xF PUSH1 0x20 MSTORE PUSH1 0x0 SWAP1 DUP2 MSTORE PUSH1 0x40 SWAP1 KECCAK256 SLOAD DUP2 JUMP JUMPDEST CALLVALUE DUP1 ISZERO PUSH2 0x3F1 JUMPI PUSH1 0x0 DUP1 REVERT JUMPDEST POP PUSH2 0x3AA PUSH1 0xC SLOAD DUP2 JUMP JUMPDEST CALLVALUE DUP1 ISZERO PUSH2 0x407 JUMPI PUSH1 0x0 DUP1 REVERT JUMPDEST POP PUSH2 0x2ED PUSH2 0x416 CALLDATASIZE PUSH1 0x4 PUSH2 0x29C4 JUMP JUMPDEST PUSH2 0xBA7 JUMP JUMPDEST CALLVALUE DUP1 ISZERO PUSH2 0x427 JUMPI PUSH1 0x0 DUP1 REVERT JUMPDEST POP PUSH2 0x2B8 PUSH2 0x436 CALLDATASIZE PUSH1 0x4 PUSH2 0x28FB JUMP JUMPDEST PUSH1 0x1 PUSH1 0x1 PUSH1 0xA0 SHL SUB AND PUSH1 0x0 SWAP1 DUP2 MSTORE PUSH1 0x12 PUSH1 0x20 MSTORE PUSH1 0x40 SWAP1 KECCAK256 SLOAD PUSH1 0xFF AND SWAP1 JUMP JUMPDEST PUSH2 0x2ED PUSH2 0xBD9 JUMP JUMPDEST CALLVALUE DUP1 ISZERO PUSH2 0x468 JUMPI PUSH1 0x0 DUP1 REVERT JUMPDEST POP PUSH2 0x2ED PUSH2 0x477 CALLDATASIZE PUSH1 0x4 PUSH2 0x29C4 JUMP JUMPDEST PUSH2 0xD0A JUMP JUMPDEST CALLVALUE DUP1 ISZERO PUSH2 0x488 JUMPI PUSH1 0x0 DUP1 REVERT JUMPDEST POP PUSH2 0x361 PUSH20 0x5AD4BFD038192E0385657962ECDF942FC0769559 DUP2 JUMP JUMPDEST CALLVALUE DUP1 ISZERO PUSH2 0x4B0 JUMPI PUSH1 0x0 DUP1 REVERT JUMPDEST POP PUSH2 0x2ED PUSH2 0x4BF CALLDATASIZE PUSH1 0x4 PUSH2 0x2981 JUMP JUMPDEST PUSH2 0xD25 JUMP JUMPDEST CALLVALUE DUP1 ISZERO PUSH2 0x4D0 JUMPI PUSH1 0x0 DUP1 REVERT JUMPDEST POP PUSH1 0xD SLOAD PUSH2 0x2B8 SWAP1 PUSH2 0x100 SWAP1 DIV PUSH1 0xFF AND DUP2 JUMP JUMPDEST CALLVALUE DUP1 ISZERO PUSH2 0x4EF JUMPI PUSH1 0x0 DUP1 REVERT JUMPDEST POP PUSH2 0x2ED PUSH2 0x4FE CALLDATASIZE PUSH1 0x4 PUSH2 0x2A00 JUMP JUMPDEST PUSH2 0xD9F JUMP JUMPDEST CALLVALUE DUP1 ISZERO PUSH2 0x50F JUMPI PUSH1 0x0 DUP1 REVERT JUMPDEST POP PUSH2 0x2ED PUSH2 0x51E CALLDATASIZE PUSH1 0x4 PUSH2 0x2B01 JUMP JUMPDEST PUSH2 0xE95 JUMP JUMPDEST CALLVALUE DUP1 ISZERO PUSH2 0x52F JUMPI PUSH1 0x0 DUP1 REVERT JUMPDEST POP PUSH1 0xD SLOAD PUSH2 0x2B8 SWAP1 PUSH1 0xFF AND DUP2 JUMP JUMPDEST CALLVALUE DUP1 ISZERO PUSH2 0x549 JUMPI PUSH1 0x0 DUP1 REVERT JUMPDEST POP PUSH2 0x361 PUSH2 0x558 CALLDATASIZE PUSH1 0x4 PUSH2 0x2981 JUMP JUMPDEST PUSH2 0xF30 JUMP JUMPDEST CALLVALUE DUP1 ISZERO PUSH2 0x569 JUMPI PUSH1 0x0 DUP1 REVERT JUMPDEST POP PUSH2 0x361 PUSH20 0xFAD7F421DD9B692ABCAF8D2E3EBA8971AF1282E6 DUP2 JUMP JUMPDEST CALLVALUE DUP1 ISZERO PUSH2 0x591 JUMPI PUSH1 0x0 DUP1 REVERT JUMPDEST POP PUSH2 0x334 PUSH2 0xFA7 JUMP JUMPDEST CALLVALUE DUP1 ISZERO PUSH2 0x5A6 JUMPI PUSH1 0x0 DUP1 REVERT JUMPDEST POP PUSH2 0x3AA PUSH2 0x5B5 CALLDATASIZE PUSH1 0x4 PUSH2 0x28FB JUMP JUMPDEST PUSH2 0x1035 JUMP JUMPDEST CALLVALUE DUP1 ISZERO PUSH2 0x5C6 JUMPI PUSH1 0x0 DUP1 REVERT JUMPDEST POP PUSH2 0x2ED PUSH2 0x10BB JUMP JUMPDEST CALLVALUE DUP1 ISZERO PUSH2 0x5DB JUMPI PUSH1 0x0 DUP1 REVERT JUMPDEST POP PUSH2 0x334 PUSH2 0x1121 JUMP JUMPDEST CALLVALUE DUP1 ISZERO PUSH2 0x5F0 JUMPI PUSH1 0x0 DUP1 REVERT JUMPDEST POP PUSH2 0x2ED PUSH2 0x5FF CALLDATASIZE PUSH1 0x4 PUSH2 0x2A00 JUMP JUMPDEST PUSH2 0x112E JUMP JUMPDEST CALLVALUE DUP1 ISZERO PUSH2 0x610 JUMPI PUSH1 0x0 DUP1 REVERT JUMPDEST POP PUSH1 0x6 SLOAD PUSH1 0x1 PUSH1 0x1 PUSH1 0xA0 SHL SUB AND PUSH2 0x361 JUMP JUMPDEST CALLVALUE DUP1 ISZERO PUSH2 0x62E JUMPI PUSH1 0x0 DUP1 REVERT JUMPDEST POP PUSH2 0x334 PUSH2 0x1310 JUMP JUMPDEST CALLVALUE DUP1 ISZERO PUSH2 0x643 JUMPI PUSH1 0x0 DUP1 REVERT JUMPDEST POP PUSH2 0x2ED PUSH2 0x131F JUMP JUMPDEST CALLVALUE DUP1 ISZERO PUSH2 0x658 JUMPI PUSH1 0x0 DUP1 REVERT JUMPDEST POP PUSH2 0x3AA PUSH1 0x10 SLOAD DUP2 JUMP JUMPDEST CALLVALUE DUP1 ISZERO PUSH2 0x66E JUMPI PUSH1 0x0 DUP1 REVERT JUMPDEST POP PUSH1 0x11 SLOAD PUSH2 0x2B8 SWAP1 PUSH1 0xFF AND DUP2 JUMP JUMPDEST CALLVALUE DUP1 ISZERO PUSH2 0x688 JUMPI PUSH1 0x0 DUP1 REVERT JUMPDEST POP PUSH2 0x3AA PUSH2 0x13AF JUMP JUMPDEST CALLVALUE DUP1 ISZERO PUSH2 0x69D JUMPI PUSH1 0x0 DUP1 REVERT JUMPDEST POP PUSH2 0x3AA PUSH1 0xB SLOAD DUP2 JUMP JUMPDEST PUSH2 0x2ED PUSH2 0x6B5 CALLDATASIZE PUSH1 0x4 PUSH2 0x2981 JUMP JUMPDEST PUSH2 0x13BF JUMP JUMPDEST CALLVALUE DUP1 ISZERO PUSH2 0x6C6 JUMPI PUSH1 0x0 DUP1 REVERT JUMPDEST POP PUSH2 0x2ED PUSH2 0x18C0 JUMP JUMPDEST CALLVALUE DUP1 ISZERO PUSH2 0x6DB JUMPI PUSH1 0x0 DUP1 REVERT JUMPDEST POP PUSH2 0x2ED PUSH2 0x6EA CALLDATASIZE PUSH1 0x4 PUSH2 0x2B4A JUMP JUMPDEST PUSH2 0x19F0 JUMP JUMPDEST CALLVALUE DUP1 ISZERO PUSH2 0x6FB JUMPI PUSH1 0x0 DUP1 REVERT JUMPDEST POP PUSH2 0x2ED PUSH2 0x19FB JUMP JUMPDEST CALLVALUE DUP1 ISZERO PUSH2 0x710 JUMPI PUSH1 0x0 DUP1 REVERT JUMPDEST POP PUSH2 0x2ED PUSH2 0x71F CALLDATASIZE PUSH1 0x4 PUSH2 0x2B7D JUMP JUMPDEST PUSH2 0x1A90 JUMP JUMPDEST CALLVALUE DUP1 ISZERO PUSH2 0x730 JUMPI PUSH1 0x0 DUP1 REVERT JUMPDEST POP PUSH2 0x3AA PUSH1 0xE SLOAD DUP2 JUMP JUMPDEST CALLVALUE DUP1 ISZERO PUSH2 0x746 JUMPI PUSH1 0x0 DUP1 REVERT JUMPDEST POP PUSH2 0x3AA PUSH2 0x755 CALLDATASIZE PUSH1 0x4 PUSH2 0x28FB JUMP JUMPDEST PUSH1 0x13 PUSH1 0x20 MSTORE PUSH1 0x0 SWAP1 DUP2 MSTORE PUSH1 0x40 SWAP1 KECCAK256 SLOAD DUP2 JUMP JUMPDEST CALLVALUE DUP1 ISZERO PUSH2 0x773 JUMPI PUSH1 0x0 DUP1 REVERT JUMPDEST POP PUSH2 0x334 PUSH2 0x782 CALLDATASIZE PUSH1 0x4 PUSH2 0x2981 JUMP JUMPDEST PUSH2 0x1AC2 JUMP JUMPDEST CALLVALUE DUP1 ISZERO PUSH2 0x793 JUMPI PUSH1 0x0 DUP1 REVERT JUMPDEST POP PUSH2 0x2ED PUSH2 0x7A2 CALLDATASIZE PUSH1 0x4 PUSH2 0x299A JUMP JUMPDEST PUSH2 0x1C36 JUMP JUMPDEST CALLVALUE DUP1 ISZERO PUSH2 0x7B3 JUMPI PUSH1 0x0 DUP1 REVERT JUMPDEST POP PUSH2 0x361 PUSH20 0x3E7BDF96755E32E728D79806C949DB9ED10EE917 DUP2 JUMP JUMPDEST CALLVALUE DUP1 ISZERO PUSH2 0x7DB JUMPI PUSH1 0x0 DUP1 REVERT JUMPDEST POP PUSH2 0x3AA PUSH2 0x1D5C JUMP JUMPDEST CALLVALUE DUP1 ISZERO PUSH2 0x7F0 JUMPI PUSH1 0x0 DUP1 REVERT JUMPDEST POP PUSH2 0x3AA PUSH1 0xA DUP2 JUMP JUMPDEST CALLVALUE DUP1 ISZERO PUSH2 0x805 JUMPI PUSH1 0x0 DUP1 REVERT JUMPDEST POP PUSH2 0x2B8 PUSH2 0x814 CALLDATASIZE PUSH1 0x4 PUSH2 0x2BF9 JUMP JUMPDEST PUSH1 0x1 PUSH1 0x1 PUSH1 0xA0 SHL SUB SWAP2 DUP3 AND PUSH1 0x0 SWAP1 DUP2 MSTORE PUSH1 0x5 PUSH1 0x20 SWAP1 DUP2 MSTORE PUSH1 0x40 DUP1 DUP4 KECCAK256 SWAP4 SWAP1 SWAP5 AND DUP3 MSTORE SWAP2 SWAP1 SWAP2 MSTORE KECCAK256 SLOAD PUSH1 0xFF AND SWAP1 JUMP JUMPDEST CALLVALUE DUP1 ISZERO PUSH2 0x84E JUMPI PUSH1 0x0 DUP1 REVERT JUMPDEST POP PUSH2 0x2ED PUSH2 0x85D CALLDATASIZE PUSH1 0x4 PUSH2 0x28FB JUMP JUMPDEST PUSH2 0x1D73 JUMP JUMPDEST CALLVALUE DUP1 ISZERO PUSH2 0x86E JUMPI PUSH1 0x0 DUP1 REVERT JUMPDEST POP PUSH2 0x3AA PUSH1 0x14 SLOAD DUP2 JUMP JUMPDEST PUSH1 0x0 PUSH1 0x1 PUSH1 0x1 PUSH1 0xE0 SHL SUB NOT DUP3 AND PUSH4 0x80AC58CD PUSH1 0xE0 SHL EQ DUP1 PUSH2 0x8A9 JUMPI POP PUSH1 0x1 PUSH1 0x1 PUSH1 0xE0 SHL SUB NOT DUP3 AND PUSH4 0x5B5E139F PUSH1 0xE0 SHL EQ JUMPDEST DUP1 PUSH2 0x8C4 JUMPI POP PUSH4 0x1FFC9A7 PUSH1 0xE0 SHL PUSH1 0x1 PUSH1 0x1 PUSH1 0xE0 SHL SUB NOT DUP4 AND EQ JUMPDEST SWAP3 SWAP2 POP POP JUMP JUMPDEST CALLER PUSH20 0x3E7BDF96755E32E728D79806C949DB9ED10EE917 EQ DUP1 PUSH2 0x8FF JUMPI POP CALLER PUSH20 0xFAD7F421DD9B692ABCAF8D2E3EBA8971AF1282E6 EQ JUMPDEST DUP1 PUSH2 0x91D JUMPI POP CALLER PUSH20 0x5AD4BFD038192E0385657962ECDF942FC0769559 EQ JUMPDEST DUP1 PUSH2 0x932 JUMPI POP PUSH1 0x6 SLOAD PUSH1 0x1 PUSH1 0x1 PUSH1 0xA0 SHL SUB AND CALLER EQ JUMPDEST PUSH2 0x957 JUMPI PUSH1 0x40 MLOAD PUSH3 0x461BCD PUSH1 0xE5 SHL DUP2 MSTORE PUSH1 0x4 ADD PUSH2 0x94E SWAP1 PUSH2 0x2C23 JUMP JUMPDEST PUSH1 0x40 MLOAD DUP1 SWAP2 SUB SWAP1 REVERT JUMPDEST PUSH1 0xD DUP1 SLOAD PUSH1 0xFF NOT AND SWAP2 ISZERO ISZERO SWAP2 SWAP1 SWAP2 OR SWAP1 SSTORE JUMP JUMPDEST PUSH1 0x60 PUSH1 0x0 DUP1 SLOAD PUSH2 0x979 SWAP1 PUSH2 0x2C4C JUMP JUMPDEST DUP1 PUSH1 0x1F ADD PUSH1 0x20 DUP1 SWAP2 DIV MUL PUSH1 0x20 ADD PUSH1 0x40 MLOAD SWAP1 DUP2 ADD PUSH1 0x40 MSTORE DUP1 SWAP3 SWAP2 SWAP1 DUP2 DUP2 MSTORE PUSH1 0x20 ADD DUP3 DUP1 SLOAD PUSH2 0x9A5 SWAP1 PUSH2 0x2C4C JUMP JUMPDEST DUP1 ISZERO PUSH2 0x9F2 JUMPI DUP1 PUSH1 0x1F LT PUSH2 0x9C7 JUMPI PUSH2 0x100 DUP1 DUP4 SLOAD DIV MUL DUP4 MSTORE SWAP2 PUSH1 0x20 ADD SWAP2 PUSH2 0x9F2 JUMP JUMPDEST DUP3 ADD SWAP2 SWAP1 PUSH1 0x0 MSTORE PUSH1 0x20 PUSH1 0x0 KECCAK256 SWAP1 JUMPDEST DUP2 SLOAD DUP2 MSTORE SWAP1 PUSH1 0x1 ADD SWAP1 PUSH1 0x20 ADD DUP1 DUP4 GT PUSH2 0x9D5 JUMPI DUP3 SWAP1 SUB PUSH1 0x1F AND DUP3 ADD SWAP2 JUMPDEST POP POP POP POP POP SWAP1 POP SWAP1 JUMP JUMPDEST PUSH1 0x0 DUP2 DUP2 MSTORE PUSH1 0x2 PUSH1 0x20 MSTORE PUSH1 0x40 DUP2 KECCAK256 SLOAD PUSH1 0x1 PUSH1 0x1 PUSH1 0xA0 SHL SUB AND PUSH2 0xA75 JUMPI PUSH1 0x40 MLOAD PUSH3 0x461BCD PUSH1 0xE5 SHL DUP2 MSTORE PUSH1 0x20 PUSH1 0x4 DUP3 ADD MSTORE PUSH1 0x2C PUSH1 0x24 DUP3 ADD MSTORE PUSH32 0x4552433732313A20617070726F76656420717565727920666F72206E6F6E6578 PUSH1 0x44 DUP3 ADD MSTORE PUSH12 0x34B9BA32B73A103A37B5B2B7 PUSH1 0xA1 SHL PUSH1 0x64 DUP3 ADD MSTORE PUSH1 0x84 ADD PUSH2 0x94E JUMP JUMPDEST POP PUSH1 0x0 SWAP1 DUP2 MSTORE PUSH1 0x4 PUSH1 0x20 MSTORE PUSH1 0x40 SWAP1 KECCAK256 SLOAD PUSH1 0x1 PUSH1 0x1 PUSH1 0xA0 SHL SUB AND SWAP1 JUMP JUMPDEST PUSH1 0x0 PUSH2 0xA9C DUP3 PUSH2 0xF30 JUMP JUMPDEST SWAP1 POP DUP1 PUSH1 0x1 PUSH1 0x1 PUSH1 0xA0 SHL SUB AND DUP4 PUSH1 0x1 PUSH1 0x1 PUSH1 0xA0 SHL SUB AND EQ ISZERO PUSH2 0xB0A JUMPI PUSH1 0x40 MLOAD PUSH3 0x461BCD PUSH1 0xE5 SHL DUP2 MSTORE PUSH1 0x20 PUSH1 0x4 DUP3 ADD MSTORE PUSH1 0x21 PUSH1 0x24 DUP3 ADD MSTORE PUSH32 0x4552433732313A20617070726F76616C20746F2063757272656E74206F776E65 PUSH1 0x44 DUP3 ADD MSTORE PUSH1 0x39 PUSH1 0xF9 SHL PUSH1 0x64 DUP3 ADD MSTORE PUSH1 0x84 ADD PUSH2 0x94E JUMP JUMPDEST CALLER PUSH1 0x1 PUSH1 0x1 PUSH1 0xA0 SHL SUB DUP3 AND EQ DUP1 PUSH2 0xB26 JUMPI POP PUSH2 0xB26 DUP2 CALLER PUSH2 0x814 JUMP JUMPDEST PUSH2 0xB98 JUMPI PUSH1 0x40 MLOAD PUSH3 0x461BCD PUSH1 0xE5 SHL DUP2 MSTORE PUSH1 0x20 PUSH1 0x4 DUP3 ADD MSTORE PUSH1 0x38 PUSH1 0x24 DUP3 ADD MSTORE PUSH32 0x4552433732313A20617070726F76652063616C6C6572206973206E6F74206F77 PUSH1 0x44 DUP3 ADD MSTORE PUSH32 0x6E6572206E6F7220617070726F76656420666F7220616C6C0000000000000000 PUSH1 0x64 DUP3 ADD MSTORE PUSH1 0x84 ADD PUSH2 0x94E JUMP JUMPDEST PUSH2 0xBA2 DUP4 DUP4 PUSH2 0x1E3B JUMP JUMPDEST POP POP POP JUMP JUMPDEST PUSH2 0xBB2 CALLER JUMPDEST DUP3 PUSH2 0x1EA9 JUMP JUMPDEST PUSH2 0xBCE JUMPI PUSH1 0x40 MLOAD PUSH3 0x461BCD PUSH1 0xE5 SHL DUP2 MSTORE PUSH1 0x4 ADD PUSH2 0x94E SWAP1 PUSH2 0x2C87 JUMP JUMPDEST PUSH2 0xBA2 DUP4 DUP4 DUP4 PUSH2 0x1FA0 JUMP JUMPDEST CALLER PUSH20 0x3E7BDF96755E32E728D79806C949DB9ED10EE917 EQ DUP1 PUSH2 0xC0E JUMPI POP CALLER PUSH20 0xFAD7F421DD9B692ABCAF8D2E3EBA8971AF1282E6 EQ JUMPDEST DUP1 PUSH2 0xC2C JUMPI POP CALLER PUSH20 0x5AD4BFD038192E0385657962ECDF942FC0769559 EQ JUMPDEST DUP1 PUSH2 0xC41 JUMPI POP PUSH1 0x6 SLOAD PUSH1 0x1 PUSH1 0x1 PUSH1 0xA0 SHL SUB AND CALLER EQ JUMPDEST PUSH2 0xC5D JUMPI PUSH1 0x40 MLOAD PUSH3 0x461BCD PUSH1 0xE5 SHL DUP2 MSTORE PUSH1 0x4 ADD PUSH2 0x94E SWAP1 PUSH2 0x2C23 JUMP JUMPDEST SELFBALANCE DUP1 PUSH2 0xC68 JUMPI PUSH1 0x0 DUP1 REVERT JUMPDEST PUSH1 0x0 PUSH2 0xC80 PUSH1 0x64 PUSH2 0xC7A DUP5 PUSH1 0x46 PUSH2 0x213C JUMP JUMPDEST SWAP1 PUSH2 0x2148 JUMP JUMPDEST SWAP1 POP PUSH1 0x0 PUSH2 0xC94 PUSH1 0x64 PUSH2 0xC7A DUP6 PUSH1 0x14 PUSH2 0x213C JUMP JUMPDEST SWAP1 POP PUSH1 0x0 PUSH2 0xCA8 PUSH1 0x64 PUSH2 0xC7A DUP7 PUSH1 0xA PUSH2 0x213C JUMP JUMPDEST SWAP1 POP PUSH2 0xCC8 PUSH20 0x3E7BDF96755E32E728D79806C949DB9ED10EE917 DUP5 PUSH2 0x2154 JUMP JUMPDEST PUSH2 0xCE6 PUSH20 0xFAD7F421DD9B692ABCAF8D2E3EBA8971AF1282E6 DUP4 PUSH2 0x2154 JUMP JUMPDEST PUSH2 0xD04 PUSH20 0x5AD4BFD038192E0385657962ECDF942FC0769559 DUP3 PUSH2 0x2154 JUMP JUMPDEST POP POP POP POP JUMP JUMPDEST PUSH2 0xBA2 DUP4 DUP4 DUP4 PUSH1 0x40 MLOAD DUP1 PUSH1 0x20 ADD PUSH1 0x40 MSTORE DUP1 PUSH1 0x0 DUP2 MSTORE POP PUSH2 0x1A90 JUMP JUMPDEST PUSH2 0xD2E CALLER PUSH2 0xBAC JUMP JUMPDEST PUSH2 0xD93 JUMPI PUSH1 0x40 MLOAD PUSH3 0x461BCD PUSH1 0xE5 SHL DUP2 MSTORE PUSH1 0x20 PUSH1 0x4 DUP3 ADD MSTORE PUSH1 0x30 PUSH1 0x24 DUP3 ADD MSTORE PUSH32 0x4552433732314275726E61626C653A2063616C6C6572206973206E6F74206F77 PUSH1 0x44 DUP3 ADD MSTORE PUSH16 0x1B995C881B9BDC88185C1C1C9BDD9959 PUSH1 0x82 SHL PUSH1 0x64 DUP3 ADD MSTORE PUSH1 0x84 ADD PUSH2 0x94E JUMP JUMPDEST PUSH2 0xD9C DUP2 PUSH2 0x218A JUMP JUMPDEST POP JUMP JUMPDEST CALLER PUSH20 0x3E7BDF96755E32E728D79806C949DB9ED10EE917 EQ DUP1 PUSH2 0xDD4 JUMPI POP CALLER PUSH20 0xFAD7F421DD9B692ABCAF8D2E3EBA8971AF1282E6 EQ JUMPDEST DUP1 PUSH2 0xDF2 JUMPI POP CALLER PUSH20 0x5AD4BFD038192E0385657962ECDF942FC0769559 EQ JUMPDEST DUP1 PUSH2 0xE07 JUMPI POP PUSH1 0x6 SLOAD PUSH1 0x1 PUSH1 0x1 PUSH1 0xA0 SHL SUB AND CALLER EQ JUMPDEST PUSH2 0xE23 JUMPI PUSH1 0x40 MLOAD PUSH3 0x461BCD PUSH1 0xE5 SHL DUP2 MSTORE PUSH1 0x4 ADD PUSH2 0x94E SWAP1 PUSH2 0x2C23 JUMP JUMPDEST PUSH1 0x0 JUMPDEST DUP2 DUP2 LT ISZERO PUSH2 0xBA2 JUMPI PUSH1 0x0 PUSH1 0x12 PUSH1 0x0 DUP6 DUP6 DUP6 DUP2 DUP2 LT PUSH2 0xE46 JUMPI PUSH2 0xE46 PUSH2 0x2CD8 JUMP JUMPDEST SWAP1 POP PUSH1 0x20 MUL ADD PUSH1 0x20 DUP2 ADD SWAP1 PUSH2 0xE5B SWAP2 SWAP1 PUSH2 0x28FB JUMP JUMPDEST PUSH1 0x1 PUSH1 0x1 PUSH1 0xA0 SHL SUB AND DUP2 MSTORE PUSH1 0x20 DUP2 ADD SWAP2 SWAP1 SWAP2 MSTORE PUSH1 0x40 ADD PUSH1 0x0 KECCAK256 DUP1 SLOAD PUSH1 0xFF NOT AND SWAP2 ISZERO ISZERO SWAP2 SWAP1 SWAP2 OR SWAP1 SSTORE DUP1 PUSH2 0xE8D DUP2 PUSH2 0x2D04 JUMP JUMPDEST SWAP2 POP POP PUSH2 0xE26 JUMP JUMPDEST CALLER PUSH20 0x3E7BDF96755E32E728D79806C949DB9ED10EE917 EQ DUP1 PUSH2 0xECA JUMPI POP CALLER PUSH20 0xFAD7F421DD9B692ABCAF8D2E3EBA8971AF1282E6 EQ JUMPDEST DUP1 PUSH2 0xEE8 JUMPI POP CALLER PUSH20 0x5AD4BFD038192E0385657962ECDF942FC0769559 EQ JUMPDEST DUP1 PUSH2 0xEFD JUMPI POP PUSH1 0x6 SLOAD PUSH1 0x1 PUSH1 0x1 PUSH1 0xA0 SHL SUB AND CALLER EQ JUMPDEST PUSH2 0xF19 JUMPI PUSH1 0x40 MLOAD PUSH3 0x461BCD PUSH1 0xE5 SHL DUP2 MSTORE PUSH1 0x4 ADD PUSH2 0x94E SWAP1 PUSH2 0x2C23 JUMP JUMPDEST DUP1 MLOAD PUSH2 0xF2C SWAP1 PUSH1 0x16 SWAP1 PUSH1 0x20 DUP5 ADD SWAP1 PUSH2 0x27CE JUMP JUMPDEST POP POP JUMP JUMPDEST PUSH1 0x0 DUP2 DUP2 MSTORE PUSH1 0x2 PUSH1 0x20 MSTORE PUSH1 0x40 DUP2 KECCAK256 SLOAD PUSH1 0x1 PUSH1 0x1 PUSH1 0xA0 SHL SUB AND DUP1 PUSH2 0x8C4 JUMPI PUSH1 0x40 MLOAD PUSH3 0x461BCD PUSH1 0xE5 SHL DUP2 MSTORE PUSH1 0x20 PUSH1 0x4 DUP3 ADD MSTORE PUSH1 0x29 PUSH1 0x24 DUP3 ADD MSTORE PUSH32 0x4552433732313A206F776E657220717565727920666F72206E6F6E6578697374 PUSH1 0x44 DUP3 ADD MSTORE PUSH9 0x32B73A103A37B5B2B7 PUSH1 0xB9 SHL PUSH1 0x64 DUP3 ADD MSTORE PUSH1 0x84 ADD PUSH2 0x94E JUMP JUMPDEST PUSH1 0x16 DUP1 SLOAD PUSH2 0xFB4 SWAP1 PUSH2 0x2C4C JUMP JUMPDEST DUP1 PUSH1 0x1F ADD PUSH1 0x20 DUP1 SWAP2 DIV MUL PUSH1 0x20 ADD PUSH1 0x40 MLOAD SWAP1 DUP2 ADD PUSH1 0x40 MSTORE DUP1 SWAP3 SWAP2 SWAP1 DUP2 DUP2 MSTORE PUSH1 0x20 ADD DUP3 DUP1 SLOAD PUSH2 0xFE0 SWAP1 PUSH2 0x2C4C JUMP JUMPDEST DUP1 ISZERO PUSH2 0x102D JUMPI DUP1 PUSH1 0x1F LT PUSH2 0x1002 JUMPI PUSH2 0x100 DUP1 DUP4 SLOAD DIV MUL DUP4 MSTORE SWAP2 PUSH1 0x20 ADD SWAP2 PUSH2 0x102D JUMP JUMPDEST DUP3 ADD SWAP2 SWAP1 PUSH1 0x0 MSTORE PUSH1 0x20 PUSH1 0x0 KECCAK256 SWAP1 JUMPDEST DUP2 SLOAD DUP2 MSTORE SWAP1 PUSH1 0x1 ADD SWAP1 PUSH1 0x20 ADD DUP1 DUP4 GT PUSH2 0x1010 JUMPI DUP3 SWAP1 SUB PUSH1 0x1F AND DUP3 ADD SWAP2 JUMPDEST POP POP POP POP POP DUP2 JUMP JUMPDEST PUSH1 0x0 PUSH1 0x1 PUSH1 0x1 PUSH1 0xA0 SHL SUB DUP3 AND PUSH2 0x109F JUMPI PUSH1 0x40 MLOAD PUSH3 0x461BCD PUSH1 0xE5 SHL DUP2 MSTORE PUSH1 0x20 PUSH1 0x4 DUP3 ADD MSTORE PUSH1 0x29 PUSH1 0x24 DUP3 ADD MSTORE PUSH32 0x4552433732313A2061646472657373207A65726F206973206E6F742061207661 PUSH1 0x44 DUP3 ADD MSTORE PUSH9 0x3634B21037BBB732B9 PUSH1 0xB9 SHL PUSH1 0x64 DUP3 ADD MSTORE PUSH1 0x84 ADD PUSH2 0x94E JUMP JUMPDEST POP PUSH1 0x1 PUSH1 0x1 PUSH1 0xA0 SHL SUB AND PUSH1 0x0 SWAP1 DUP2 MSTORE PUSH1 0x3 PUSH1 0x20 MSTORE PUSH1 0x40 SWAP1 KECCAK256 SLOAD SWAP1 JUMP JUMPDEST PUSH1 0x6 SLOAD PUSH1 0x1 PUSH1 0x1 PUSH1 0xA0 SHL SUB AND CALLER EQ PUSH2 0x1115 JUMPI PUSH1 0x40 MLOAD PUSH3 0x461BCD PUSH1 0xE5 SHL DUP2 MSTORE PUSH1 0x20 PUSH1 0x4 DUP3 ADD DUP2 SWAP1 MSTORE PUSH1 0x24 DUP3 ADD MSTORE PUSH32 0x4F776E61626C653A2063616C6C6572206973206E6F7420746865206F776E6572 PUSH1 0x44 DUP3 ADD MSTORE PUSH1 0x64 ADD PUSH2 0x94E JUMP JUMPDEST PUSH2 0x111F PUSH1 0x0 PUSH2 0x2225 JUMP JUMPDEST JUMP JUMPDEST PUSH1 0x15 DUP1 SLOAD PUSH2 0xFB4 SWAP1 PUSH2 0x2C4C JUMP JUMPDEST CALLER PUSH20 0x3E7BDF96755E32E728D79806C949DB9ED10EE917 EQ DUP1 PUSH2 0x1163 JUMPI POP CALLER PUSH20 0xFAD7F421DD9B692ABCAF8D2E3EBA8971AF1282E6 EQ JUMPDEST DUP1 PUSH2 0x1181 JUMPI POP CALLER PUSH20 0x5AD4BFD038192E0385657962ECDF942FC0769559 EQ JUMPDEST DUP1 PUSH2 0x1196 JUMPI POP PUSH1 0x6 SLOAD PUSH1 0x1 PUSH1 0x1 PUSH1 0xA0 SHL SUB AND CALLER EQ JUMPDEST PUSH2 0x11B2 JUMPI PUSH1 0x40 MLOAD PUSH3 0x461BCD PUSH1 0xE5 SHL DUP2 MSTORE PUSH1 0x4 ADD PUSH2 0x94E SWAP1 PUSH2 0x2C23 JUMP JUMPDEST PUSH1 0x0 JUMPDEST DUP2 DUP2 LT ISZERO PUSH2 0xBA2 JUMPI PUSH1 0x1 PUSH1 0x12 PUSH1 0x0 DUP6 DUP6 DUP6 DUP2 DUP2 LT PUSH2 0x11D5 JUMPI PUSH2 0x11D5 PUSH2 0x2CD8 JUMP JUMPDEST SWAP1 POP PUSH1 0x20 MUL ADD PUSH1 0x20 DUP2 ADD SWAP1 PUSH2 0x11EA SWAP2 SWAP1 PUSH2 0x28FB JUMP JUMPDEST PUSH1 0x1 PUSH1 0x1 PUSH1 0xA0 SHL SUB AND DUP2 MSTORE PUSH1 0x20 DUP2 ADD SWAP2 SWAP1 SWAP2 MSTORE PUSH1 0x40 ADD PUSH1 0x0 SWAP1 DUP2 KECCAK256 DUP1 SLOAD PUSH1 0xFF NOT AND SWAP3 ISZERO ISZERO SWAP3 SWAP1 SWAP3 OR SWAP1 SWAP2 SSTORE PUSH1 0x13 DUP2 DUP6 DUP6 DUP6 DUP2 DUP2 LT PUSH2 0x122A JUMPI PUSH2 0x122A PUSH2 0x2CD8 JUMP JUMPDEST SWAP1 POP PUSH1 0x20 MUL ADD PUSH1 0x20 DUP2 ADD SWAP1 PUSH2 0x123F SWAP2 SWAP1 PUSH2 0x28FB JUMP JUMPDEST PUSH1 0x1 PUSH1 0x1 PUSH1 0xA0 SHL SUB AND PUSH1 0x1 PUSH1 0x1 PUSH1 0xA0 SHL SUB AND DUP2 MSTORE PUSH1 0x20 ADD SWAP1 DUP2 MSTORE PUSH1 0x20 ADD PUSH1 0x0 KECCAK256 SLOAD GT PUSH2 0x126C JUMPI PUSH1 0x0 PUSH2 0x12B9 JUMP JUMPDEST PUSH1 0x13 PUSH1 0x0 DUP5 DUP5 DUP5 DUP2 DUP2 LT PUSH2 0x1282 JUMPI PUSH2 0x1282 PUSH2 0x2CD8 JUMP JUMPDEST SWAP1 POP PUSH1 0x20 MUL ADD PUSH1 0x20 DUP2 ADD SWAP1 PUSH2 0x1297 SWAP2 SWAP1 PUSH2 0x28FB JUMP JUMPDEST PUSH1 0x1 PUSH1 0x1 PUSH1 0xA0 SHL SUB AND PUSH1 0x1 PUSH1 0x1 PUSH1 0xA0 SHL SUB AND DUP2 MSTORE PUSH1 0x20 ADD SWAP1 DUP2 MSTORE PUSH1 0x20 ADD PUSH1 0x0 KECCAK256 SLOAD JUMPDEST PUSH1 0x13 PUSH1 0x0 DUP6 DUP6 DUP6 DUP2 DUP2 LT PUSH2 0x12CF JUMPI PUSH2 0x12CF PUSH2 0x2CD8 JUMP JUMPDEST SWAP1 POP PUSH1 0x20 MUL ADD PUSH1 0x20 DUP2 ADD SWAP1 PUSH2 0x12E4 SWAP2 SWAP1 PUSH2 0x28FB JUMP JUMPDEST PUSH1 0x1 PUSH1 0x1 PUSH1 0xA0 SHL SUB AND DUP2 MSTORE PUSH1 0x20 DUP2 ADD SWAP2 SWAP1 SWAP2 MSTORE PUSH1 0x40 ADD PUSH1 0x0 KECCAK256 SSTORE DUP1 PUSH2 0x1308 DUP2 PUSH2 0x2D04 JUMP JUMPDEST SWAP2 POP POP PUSH2 0x11B5 JUMP JUMPDEST PUSH1 0x60 PUSH1 0x1 DUP1 SLOAD PUSH2 0x979 SWAP1 PUSH2 0x2C4C JUMP JUMPDEST CALLER PUSH20 0x3E7BDF96755E32E728D79806C949DB9ED10EE917 EQ DUP1 PUSH2 0x1354 JUMPI POP CALLER PUSH20 0xFAD7F421DD9B692ABCAF8D2E3EBA8971AF1282E6 EQ JUMPDEST DUP1 PUSH2 0x1372 JUMPI POP CALLER PUSH20 0x5AD4BFD038192E0385657962ECDF942FC0769559 EQ JUMPDEST DUP1 PUSH2 0x1387 JUMPI POP PUSH1 0x6 SLOAD PUSH1 0x1 PUSH1 0x1 PUSH1 0xA0 SHL SUB AND CALLER EQ JUMPDEST PUSH2 0x13A3 JUMPI PUSH1 0x40 MLOAD PUSH3 0x461BCD PUSH1 0xE5 SHL DUP2 MSTORE PUSH1 0x4 ADD PUSH2 0x94E SWAP1 PUSH2 0x2C23 JUMP JUMPDEST PUSH1 0x11 DUP1 SLOAD PUSH1 0xFF NOT AND SWAP1 SSTORE JUMP JUMPDEST PUSH1 0x0 PUSH2 0x13BA PUSH1 0x7 SLOAD SWAP1 JUMP JUMPDEST SWAP1 POP SWAP1 JUMP JUMPDEST PUSH1 0x8 SLOAD PUSH2 0x13CA PUSH2 0x13AF JUMP JUMPDEST GT ISZERO PUSH2 0x1405 JUMPI PUSH1 0x40 MLOAD PUSH3 0x461BCD PUSH1 0xE5 SHL DUP2 MSTORE PUSH1 0x20 PUSH1 0x4 DUP3 ADD MSTORE PUSH1 0xA PUSH1 0x24 DUP3 ADD MSTORE PUSH10 0x14D85B1948195B991959 PUSH1 0xB2 SHL PUSH1 0x44 DUP3 ADD MSTORE PUSH1 0x64 ADD PUSH2 0x94E JUMP JUMPDEST PUSH1 0xD SLOAD PUSH1 0xFF AND ISZERO PUSH2 0x1451 JUMPI PUSH1 0x40 MLOAD PUSH3 0x461BCD PUSH1 0xE5 SHL DUP2 MSTORE PUSH1 0x20 PUSH1 0x4 DUP3 ADD MSTORE PUSH1 0x16 PUSH1 0x24 DUP3 ADD MSTORE PUSH22 0x151A194818DBDB9D1C9858DD081A5CC81C185D5CD959 PUSH1 0x52 SHL PUSH1 0x44 DUP3 ADD MSTORE PUSH1 0x64 ADD PUSH2 0x94E JUMP JUMPDEST PUSH1 0x8 SLOAD PUSH1 0x14 SLOAD DUP3 PUSH2 0x1460 PUSH2 0x13AF JUMP JUMPDEST PUSH2 0x146A SWAP2 SWAP1 PUSH2 0x2D1F JUMP JUMPDEST PUSH2 0x1474 SWAP2 SWAP1 PUSH2 0x2D1F JUMP JUMPDEST GT ISZERO PUSH2 0x14D6 JUMPI PUSH1 0x40 MLOAD PUSH3 0x461BCD PUSH1 0xE5 SHL DUP2 MSTORE PUSH1 0x20 PUSH1 0x4 DUP3 ADD MSTORE PUSH1 0x2B PUSH1 0x24 DUP3 ADD MSTORE PUSH32 0x596F752063616E2774206D696E74206D6F7265207468616E20746865206D6178 PUSH1 0x44 DUP3 ADD MSTORE PUSH11 0x696D756D20737570706C79 PUSH1 0xA8 SHL PUSH1 0x64 DUP3 ADD MSTORE PUSH1 0x84 ADD PUSH2 0x94E JUMP JUMPDEST PUSH1 0x0 PUSH1 0x1 PUSH2 0x14E2 PUSH2 0x1D5C JUMP JUMPDEST PUSH2 0x14EC SWAP2 SWAP1 PUSH2 0x2D37 JUMP JUMPDEST LT ISZERO PUSH2 0x1555 JUMPI PUSH1 0x40 MLOAD PUSH3 0x461BCD PUSH1 0xE5 SHL DUP2 MSTORE PUSH1 0x20 PUSH1 0x4 DUP3 ADD MSTORE PUSH1 0x32 PUSH1 0x24 DUP3 ADD MSTORE PUSH32 0x596F752063616E2774206D696E74206D6F7265207468616E2074686520617661 PUSH1 0x44 DUP3 ADD MSTORE PUSH18 0x1A5B18589B19481D1BDAD95B8818DBDD5B9D PUSH1 0x72 SHL PUSH1 0x64 DUP3 ADD MSTORE PUSH1 0x84 ADD PUSH2 0x94E JUMP JUMPDEST ORIGIN CALLER EQ PUSH2 0x15B2 JUMPI PUSH1 0x40 MLOAD PUSH3 0x461BCD PUSH1 0xE5 SHL DUP2 MSTORE PUSH1 0x20 PUSH1 0x4 DUP3 ADD MSTORE PUSH1 0x25 PUSH1 0x24 DUP3 ADD MSTORE PUSH32 0x43616E6E6F74206D696E74207468726F756768206120637573746F6D20636F6E PUSH1 0x44 DUP3 ADD MSTORE PUSH5 0x1D1C9858DD PUSH1 0xDA SHL PUSH1 0x64 DUP3 ADD MSTORE PUSH1 0x84 ADD PUSH2 0x94E JUMP JUMPDEST PUSH1 0x0 DUP2 GT PUSH2 0x1602 JUMPI PUSH1 0x40 MLOAD PUSH3 0x461BCD PUSH1 0xE5 SHL DUP2 MSTORE PUSH1 0x20 PUSH1 0x4 DUP3 ADD MSTORE PUSH1 0x1B PUSH1 0x24 DUP3 ADD MSTORE PUSH32 0x4E65656420746F206D696E74206174206C656173742031204E46540000000000 PUSH1 0x44 DUP3 ADD MSTORE PUSH1 0x64 ADD PUSH2 0x94E JUMP JUMPDEST PUSH1 0xC SLOAD DUP2 GT ISZERO PUSH2 0x1665 JUMPI PUSH1 0x40 MLOAD PUSH3 0x461BCD PUSH1 0xE5 SHL DUP2 MSTORE PUSH1 0x20 PUSH1 0x4 DUP3 ADD MSTORE PUSH1 0x28 PUSH1 0x24 DUP3 ADD MSTORE PUSH32 0x4D6178696D756D206D696E7420616D6F756E74207065722073657373696F6E20 PUSH1 0x44 DUP3 ADD MSTORE PUSH8 0x195E18D959591959 PUSH1 0xC2 SHL PUSH1 0x64 DUP3 ADD MSTORE PUSH1 0x84 ADD PUSH2 0x94E JUMP JUMPDEST PUSH1 0xE SLOAD CALLER PUSH1 0x0 SWAP1 DUP2 MSTORE PUSH1 0xF PUSH1 0x20 MSTORE PUSH1 0x40 SWAP1 KECCAK256 SLOAD PUSH2 0x1683 SWAP1 DUP4 SWAP1 PUSH2 0x2D1F JUMP JUMPDEST GT ISZERO PUSH2 0x16D1 JUMPI PUSH1 0x40 MLOAD PUSH3 0x461BCD PUSH1 0xE5 SHL DUP2 MSTORE PUSH1 0x20 PUSH1 0x4 DUP3 ADD MSTORE PUSH1 0x1C PUSH1 0x24 DUP3 ADD MSTORE PUSH32 0x4D6178204E465420706572206164647265737320657863656564656400000000 PUSH1 0x44 DUP3 ADD MSTORE PUSH1 0x64 ADD PUSH2 0x94E JUMP JUMPDEST PUSH1 0x6 SLOAD PUSH1 0x1 PUSH1 0x1 PUSH1 0xA0 SHL SUB AND CALLER EQ PUSH2 0x1841 JUMPI PUSH1 0x11 SLOAD PUSH1 0xFF AND ISZERO PUSH2 0x17EF JUMPI CALLER PUSH1 0x0 SWAP1 DUP2 MSTORE PUSH1 0x12 PUSH1 0x20 MSTORE PUSH1 0x40 SWAP1 KECCAK256 SLOAD PUSH1 0xFF AND PUSH2 0x174D JUMPI PUSH1 0x40 MLOAD PUSH3 0x461BCD PUSH1 0xE5 SHL DUP2 MSTORE PUSH1 0x20 PUSH1 0x4 DUP3 ADD MSTORE PUSH1 0x17 PUSH1 0x24 DUP3 ADD MSTORE PUSH32 0x55736572206973206E6F742077686974656C6973746564000000000000000000 PUSH1 0x44 DUP3 ADD MSTORE PUSH1 0x64 ADD PUSH2 0x94E JUMP JUMPDEST PUSH1 0x10 SLOAD CALLER PUSH1 0x0 SWAP1 DUP2 MSTORE PUSH1 0x13 PUSH1 0x20 MSTORE PUSH1 0x40 SWAP1 KECCAK256 SLOAD PUSH2 0x176B SWAP1 DUP4 SWAP1 PUSH2 0x2D1F JUMP JUMPDEST GT ISZERO PUSH2 0x17CA JUMPI PUSH1 0x40 MLOAD PUSH3 0x461BCD PUSH1 0xE5 SHL DUP2 MSTORE PUSH1 0x20 PUSH1 0x4 DUP3 ADD MSTORE PUSH1 0x28 PUSH1 0x24 DUP3 ADD MSTORE PUSH32 0x4D6178204E4654207065722077686974656C6973746564206164647265737320 PUSH1 0x44 DUP3 ADD MSTORE PUSH8 0x195E18D959591959 PUSH1 0xC2 SHL PUSH1 0x64 DUP3 ADD MSTORE PUSH1 0x84 ADD PUSH2 0x94E JUMP JUMPDEST CALLER PUSH1 0x0 SWAP1 DUP2 MSTORE PUSH1 0x13 PUSH1 0x20 MSTORE PUSH1 0x40 DUP2 KECCAK256 DUP1 SLOAD DUP4 SWAP3 SWAP1 PUSH2 0x17E9 SWAP1 DUP5 SWAP1 PUSH2 0x2D1F JUMP JUMPDEST SWAP1 SWAP2 SSTORE POP POP JUMPDEST DUP1 PUSH1 0xB SLOAD PUSH2 0x17FD SWAP2 SWAP1 PUSH2 0x2D4E JUMP JUMPDEST CALLVALUE LT ISZERO PUSH2 0x1841 JUMPI PUSH1 0x40 MLOAD PUSH3 0x461BCD PUSH1 0xE5 SHL DUP2 MSTORE PUSH1 0x20 PUSH1 0x4 DUP3 ADD MSTORE PUSH1 0x12 PUSH1 0x24 DUP3 ADD MSTORE PUSH18 0x496E73756666696369656E742066756E6473 PUSH1 0x70 SHL PUSH1 0x44 DUP3 ADD MSTORE PUSH1 0x64 ADD PUSH2 0x94E JUMP JUMPDEST PUSH1 0x0 JUMPDEST DUP2 DUP2 LT ISZERO PUSH2 0xF2C JUMPI CALLER PUSH1 0x0 SWAP1 DUP2 MSTORE PUSH1 0xF PUSH1 0x20 MSTORE PUSH1 0x40 DUP2 KECCAK256 DUP1 SLOAD SWAP2 PUSH2 0x1867 DUP4 PUSH2 0x2D04 JUMP JUMPDEST SWAP2 SWAP1 POP SSTORE POP PUSH1 0x0 PUSH2 0x1876 PUSH2 0x2277 JUMP JUMPDEST SWAP1 POP PUSH2 0x1882 CALLER DUP3 PUSH2 0x240F JUMP JUMPDEST PUSH1 0x40 MLOAD DUP2 SWAP1 PUSH32 0x5871761B381266E7E47309F0821D5B396364EBB6371D878871CAC5393CB93EA8 SWAP1 PUSH1 0x0 SWAP1 LOG2 POP DUP1 PUSH2 0x18B8 DUP2 PUSH2 0x2D04 JUMP JUMPDEST SWAP2 POP POP PUSH2 0x1844 JUMP JUMPDEST CALLER PUSH20 0x3E7BDF96755E32E728D79806C949DB9ED10EE917 EQ DUP1 PUSH2 0x18F5 JUMPI POP CALLER PUSH20 0xFAD7F421DD9B692ABCAF8D2E3EBA8971AF1282E6 EQ JUMPDEST DUP1 PUSH2 0x1913 JUMPI POP CALLER PUSH20 0x5AD4BFD038192E0385657962ECDF942FC0769559 EQ JUMPDEST DUP1 PUSH2 0x1928 JUMPI POP PUSH1 0x6 SLOAD PUSH1 0x1 PUSH1 0x1 PUSH1 0xA0 SHL SUB AND CALLER EQ JUMPDEST PUSH2 0x1944 JUMPI PUSH1 0x40 MLOAD PUSH3 0x461BCD PUSH1 0xE5 SHL DUP2 MSTORE PUSH1 0x4 ADD PUSH2 0x94E SWAP1 PUSH2 0x2C23 JUMP JUMPDEST PUSH2 0x194C PUSH2 0x2852 JUMP JUMPDEST PUSH1 0x1 JUMPDEST PUSH1 0xA DUP2 GT PUSH2 0x19B5 JUMPI PUSH1 0x0 DUP2 DUP2 MSTORE PUSH1 0x2 PUSH1 0x20 MSTORE PUSH1 0x40 SWAP1 KECCAK256 SLOAD PUSH1 0x1 PUSH1 0x1 PUSH1 0xA0 SHL SUB AND ISZERO PUSH2 0x19A3 JUMPI PUSH2 0x197D DUP2 PUSH2 0xF30 JUMP JUMPDEST DUP3 DUP3 PUSH1 0xB DUP2 LT PUSH2 0x198F JUMPI PUSH2 0x198F PUSH2 0x2CD8 JUMP JUMPDEST PUSH1 0x1 PUSH1 0x1 PUSH1 0xA0 SHL SUB SWAP1 SWAP3 AND PUSH1 0x20 SWAP3 SWAP1 SWAP3 MUL ADD MSTORE JUMPDEST DUP1 PUSH2 0x19AD DUP2 PUSH2 0x2D04 JUMP JUMPDEST SWAP2 POP POP PUSH2 0x194F JUMP JUMPDEST POP PUSH32 0xAA6DC7310EE4C494DF5B5C3917C78CEAD1D9858768A6789D5FA8C05BA2E6C515 DUP2 PUSH1 0x40 MLOAD PUSH2 0x19E5 SWAP2 SWAP1 PUSH2 0x2D6D JUMP JUMPDEST PUSH1 0x40 MLOAD DUP1 SWAP2 SUB SWAP1 LOG1 POP JUMP JUMPDEST PUSH2 0xF2C CALLER DUP4 DUP4 PUSH2 0x2429 JUMP JUMPDEST CALLER PUSH20 0x3E7BDF96755E32E728D79806C949DB9ED10EE917 EQ DUP1 PUSH2 0x1A30 JUMPI POP CALLER PUSH20 0xFAD7F421DD9B692ABCAF8D2E3EBA8971AF1282E6 EQ JUMPDEST DUP1 PUSH2 0x1A4E JUMPI POP CALLER PUSH20 0x5AD4BFD038192E0385657962ECDF942FC0769559 EQ JUMPDEST DUP1 PUSH2 0x1A63 JUMPI POP PUSH1 0x6 SLOAD PUSH1 0x1 PUSH1 0x1 PUSH1 0xA0 SHL SUB AND CALLER EQ JUMPDEST PUSH2 0x1A7F JUMPI PUSH1 0x40 MLOAD PUSH3 0x461BCD PUSH1 0xE5 SHL DUP2 MSTORE PUSH1 0x4 ADD PUSH2 0x94E SWAP1 PUSH2 0x2C23 JUMP JUMPDEST PUSH1 0xD DUP1 SLOAD PUSH2 0xFF00 NOT AND PUSH2 0x100 OR SWAP1 SSTORE JUMP JUMPDEST PUSH2 0x1A9A CALLER DUP4 PUSH2 0x1EA9 JUMP JUMPDEST PUSH2 0x1AB6 JUMPI PUSH1 0x40 MLOAD PUSH3 0x461BCD PUSH1 0xE5 SHL DUP2 MSTORE PUSH1 0x4 ADD PUSH2 0x94E SWAP1 PUSH2 0x2C87 JUMP JUMPDEST PUSH2 0xD04 DUP5 DUP5 DUP5 DUP5 PUSH2 0x24F8 JUMP JUMPDEST PUSH1 0x0 DUP2 DUP2 MSTORE PUSH1 0x2 PUSH1 0x20 MSTORE PUSH1 0x40 SWAP1 KECCAK256 SLOAD PUSH1 0x60 SWAP1 PUSH1 0x1 PUSH1 0x1 PUSH1 0xA0 SHL SUB AND PUSH2 0x1B41 JUMPI PUSH1 0x40 MLOAD PUSH3 0x461BCD PUSH1 0xE5 SHL DUP2 MSTORE PUSH1 0x20 PUSH1 0x4 DUP3 ADD MSTORE PUSH1 0x2F PUSH1 0x24 DUP3 ADD MSTORE PUSH32 0x4552433732314D657461646174613A2055524920717565727920666F72206E6F PUSH1 0x44 DUP3 ADD MSTORE PUSH15 0x3732BC34B9BA30B73A103A37B5B2B7 PUSH1 0x89 SHL PUSH1 0x64 DUP3 ADD MSTORE PUSH1 0x84 ADD PUSH2 0x94E JUMP JUMPDEST PUSH1 0xD SLOAD PUSH2 0x100 SWAP1 DIV PUSH1 0xFF AND PUSH2 0x1BE2 JUMPI PUSH1 0x15 DUP1 SLOAD PUSH2 0x1B5D SWAP1 PUSH2 0x2C4C JUMP JUMPDEST DUP1 PUSH1 0x1F ADD PUSH1 0x20 DUP1 SWAP2 DIV MUL PUSH1 0x20 ADD PUSH1 0x40 MLOAD SWAP1 DUP2 ADD PUSH1 0x40 MSTORE DUP1 SWAP3 SWAP2 SWAP1 DUP2 DUP2 MSTORE PUSH1 0x20 ADD DUP3 DUP1 SLOAD PUSH2 0x1B89 SWAP1 PUSH2 0x2C4C JUMP JUMPDEST DUP1 ISZERO PUSH2 0x1BD6 JUMPI DUP1 PUSH1 0x1F LT PUSH2 0x1BAB JUMPI PUSH2 0x100 DUP1 DUP4 SLOAD DIV MUL DUP4 MSTORE SWAP2 PUSH1 0x20 ADD SWAP2 PUSH2 0x1BD6 JUMP JUMPDEST DUP3 ADD SWAP2 SWAP1 PUSH1 0x0 MSTORE PUSH1 0x20 PUSH1 0x0 KECCAK256 SWAP1 JUMPDEST DUP2 SLOAD DUP2 MSTORE SWAP1 PUSH1 0x1 ADD SWAP1 PUSH1 0x20 ADD DUP1 DUP4 GT PUSH2 0x1BB9 JUMPI DUP3 SWAP1 SUB PUSH1 0x1F AND DUP3 ADD SWAP2 JUMPDEST POP POP POP POP POP SWAP1 POP SWAP2 SWAP1 POP JUMP JUMPDEST PUSH1 0x0 PUSH2 0x1BEC PUSH2 0x252B JUMP JUMPDEST SWAP1 POP PUSH1 0x0 DUP2 MLOAD GT PUSH2 0x1C0C JUMPI PUSH1 0x40 MLOAD DUP1 PUSH1 0x20 ADD PUSH1 0x40 MSTORE DUP1 PUSH1 0x0 DUP2 MSTORE POP PUSH2 0x1C2F JUMP JUMPDEST DUP1 DUP4 PUSH1 0x40 MLOAD PUSH1 0x20 ADD PUSH2 0x1C1F SWAP3 SWAP2 SWAP1 PUSH2 0x2DA8 JUMP JUMPDEST PUSH1 0x40 MLOAD PUSH1 0x20 DUP2 DUP4 SUB SUB DUP2 MSTORE SWAP1 PUSH1 0x40 MSTORE JUMPDEST SWAP4 SWAP3 POP POP POP JUMP JUMPDEST CALLER PUSH20 0x3E7BDF96755E32E728D79806C949DB9ED10EE917 EQ DUP1 PUSH2 0x1C6B JUMPI POP CALLER PUSH20 0xFAD7F421DD9B692ABCAF8D2E3EBA8971AF1282E6 EQ JUMPDEST DUP1 PUSH2 0x1C89 JUMPI POP CALLER PUSH20 0x5AD4BFD038192E0385657962ECDF942FC0769559 EQ JUMPDEST DUP1 PUSH2 0x1C9E JUMPI POP PUSH1 0x6 SLOAD PUSH1 0x1 PUSH1 0x1 PUSH1 0xA0 SHL SUB AND CALLER EQ JUMPDEST PUSH2 0x1CBA JUMPI PUSH1 0x40 MLOAD PUSH3 0x461BCD PUSH1 0xE5 SHL DUP2 MSTORE PUSH1 0x4 ADD PUSH2 0x94E SWAP1 PUSH2 0x2C23 JUMP JUMPDEST PUSH1 0x14 SLOAD DUP2 GT ISZERO PUSH2 0x1D0C JUMPI PUSH1 0x40 MLOAD PUSH3 0x461BCD PUSH1 0xE5 SHL DUP2 MSTORE PUSH1 0x20 PUSH1 0x4 DUP3 ADD MSTORE PUSH1 0x1D PUSH1 0x24 DUP3 ADD MSTORE PUSH32 0x4578636565646573207265736572766564204E46547320737570706C79000000 PUSH1 0x44 DUP3 ADD MSTORE PUSH1 0x64 ADD PUSH2 0x94E JUMP JUMPDEST PUSH1 0x0 JUMPDEST DUP2 DUP2 LT ISZERO PUSH2 0x1D40 JUMPI PUSH1 0x0 PUSH2 0x1D21 PUSH2 0x2277 JUMP JUMPDEST SWAP1 POP PUSH2 0x1D2D DUP5 DUP3 PUSH2 0x240F JUMP JUMPDEST POP DUP1 PUSH2 0x1D38 DUP2 PUSH2 0x2D04 JUMP JUMPDEST SWAP2 POP POP PUSH2 0x1D0F JUMP JUMPDEST POP DUP1 PUSH1 0x14 PUSH1 0x0 DUP3 DUP3 SLOAD PUSH2 0x1D53 SWAP2 SWAP1 PUSH2 0x2D37 JUMP JUMPDEST SWAP1 SWAP2 SSTORE POP POP POP POP JUMP JUMPDEST PUSH1 0x0 PUSH2 0x1D66 PUSH2 0x13AF JUMP JUMPDEST PUSH1 0x8 SLOAD PUSH2 0x13BA SWAP2 SWAP1 PUSH2 0x2D37 JUMP JUMPDEST PUSH1 0x6 SLOAD PUSH1 0x1 PUSH1 0x1 PUSH1 0xA0 SHL SUB AND CALLER EQ PUSH2 0x1DCD JUMPI PUSH1 0x40 MLOAD PUSH3 0x461BCD PUSH1 0xE5 SHL DUP2 MSTORE PUSH1 0x20 PUSH1 0x4 DUP3 ADD DUP2 SWAP1 MSTORE PUSH1 0x24 DUP3 ADD MSTORE PUSH32 0x4F776E61626C653A2063616C6C6572206973206E6F7420746865206F776E6572 PUSH1 0x44 DUP3 ADD MSTORE PUSH1 0x64 ADD PUSH2 0x94E JUMP JUMPDEST PUSH1 0x1 PUSH1 0x1 PUSH1 0xA0 SHL SUB DUP2 AND PUSH2 0x1E32 JUMPI PUSH1 0x40 MLOAD PUSH3 0x461BCD PUSH1 0xE5 SHL DUP2 MSTORE PUSH1 0x20 PUSH1 0x4 DUP3 ADD MSTORE PUSH1 0x26 PUSH1 0x24 DUP3 ADD MSTORE PUSH32 0x4F776E61626C653A206E6577206F776E657220697320746865207A65726F2061 PUSH1 0x44 DUP3 ADD MSTORE PUSH6 0x646472657373 PUSH1 0xD0 SHL PUSH1 0x64 DUP3 ADD MSTORE PUSH1 0x84 ADD PUSH2 0x94E JUMP JUMPDEST PUSH2 0xD9C DUP2 PUSH2 0x2225 JUMP JUMPDEST PUSH1 0x0 DUP2 DUP2 MSTORE PUSH1 0x4 PUSH1 0x20 MSTORE PUSH1 0x40 SWAP1 KECCAK256 DUP1 SLOAD PUSH1 0x1 PUSH1 0x1 PUSH1 0xA0 SHL SUB NOT AND PUSH1 0x1 PUSH1 0x1 PUSH1 0xA0 SHL SUB DUP5 AND SWAP1 DUP2 OR SWAP1 SWAP2 SSTORE DUP2 SWAP1 PUSH2 0x1E70 DUP3 PUSH2 0xF30 JUMP JUMPDEST PUSH1 0x1 PUSH1 0x1 PUSH1 0xA0 SHL SUB AND PUSH32 0x8C5BE1E5EBEC7D5BD14F71427D1E84F3DD0314C0F7B2291E5B200AC8C7C3B925 PUSH1 0x40 MLOAD PUSH1 0x40 MLOAD DUP1 SWAP2 SUB SWAP1 LOG4 POP POP JUMP JUMPDEST PUSH1 0x0 DUP2 DUP2 MSTORE PUSH1 0x2 PUSH1 0x20 MSTORE PUSH1 0x40 DUP2 KECCAK256 SLOAD PUSH1 0x1 PUSH1 0x1 PUSH1 0xA0 SHL SUB AND PUSH2 0x1F22 JUMPI PUSH1 0x40 MLOAD PUSH3 0x461BCD PUSH1 0xE5 SHL DUP2 MSTORE PUSH1 0x20 PUSH1 0x4 DUP3 ADD MSTORE PUSH1 0x2C PUSH1 0x24 DUP3 ADD MSTORE PUSH32 0x4552433732313A206F70657261746F7220717565727920666F72206E6F6E6578 PUSH1 0x44 DUP3 ADD MSTORE PUSH12 0x34B9BA32B73A103A37B5B2B7 PUSH1 0xA1 SHL PUSH1 0x64 DUP3 ADD MSTORE PUSH1 0x84 ADD PUSH2 0x94E JUMP JUMPDEST PUSH1 0x0 PUSH2 0x1F2D DUP4 PUSH2 0xF30 JUMP JUMPDEST SWAP1 POP DUP1 PUSH1 0x1 PUSH1 0x1 PUSH1 0xA0 SHL SUB AND DUP5 PUSH1 0x1 PUSH1 0x1 PUSH1 0xA0 SHL SUB AND EQ DUP1 PUSH2 0x1F74 JUMPI POP PUSH1 0x1 PUSH1 0x1 PUSH1 0xA0 SHL SUB DUP1 DUP3 AND PUSH1 0x0 SWAP1 DUP2 MSTORE PUSH1 0x5 PUSH1 0x20 SWAP1 DUP2 MSTORE PUSH1 0x40 DUP1 DUP4 KECCAK256 SWAP4 DUP9 AND DUP4 MSTORE SWAP3 SWAP1 MSTORE KECCAK256 SLOAD PUSH1 0xFF AND JUMPDEST DUP1 PUSH2 0x1F98 JUMPI POP DUP4 PUSH1 0x1 PUSH1 0x1 PUSH1 0xA0 SHL SUB AND PUSH2 0x1F8D DUP5 PUSH2 0x9FC JUMP JUMPDEST PUSH1 0x1 PUSH1 0x1 PUSH1 0xA0 SHL SUB AND EQ JUMPDEST SWAP5 SWAP4 POP POP POP POP JUMP JUMPDEST DUP3 PUSH1 0x1 PUSH1 0x1 PUSH1 0xA0 SHL SUB AND PUSH2 0x1FB3 DUP3 PUSH2 0xF30 JUMP JUMPDEST PUSH1 0x1 PUSH1 0x1 PUSH1 0xA0 SHL SUB AND EQ PUSH2 0x2017 JUMPI PUSH1 0x40 MLOAD PUSH3 0x461BCD PUSH1 0xE5 SHL DUP2 MSTORE PUSH1 0x20 PUSH1 0x4 DUP3 ADD MSTORE PUSH1 0x25 PUSH1 0x24 DUP3 ADD MSTORE PUSH32 0x4552433732313A207472616E736665722066726F6D20696E636F727265637420 PUSH1 0x44 DUP3 ADD MSTORE PUSH5 0x37BBB732B9 PUSH1 0xD9 SHL PUSH1 0x64 DUP3 ADD MSTORE PUSH1 0x84 ADD PUSH2 0x94E JUMP JUMPDEST PUSH1 0x1 PUSH1 0x1 PUSH1 0xA0 SHL SUB DUP3 AND PUSH2 0x2079 JUMPI PUSH1 0x40 MLOAD PUSH3 0x461BCD PUSH1 0xE5 SHL DUP2 MSTORE PUSH1 0x20 PUSH1 0x4 DUP3 ADD MSTORE PUSH1 0x24 DUP1 DUP3 ADD MSTORE PUSH32 0x4552433732313A207472616E7366657220746F20746865207A65726F20616464 PUSH1 0x44 DUP3 ADD MSTORE PUSH4 0x72657373 PUSH1 0xE0 SHL PUSH1 0x64 DUP3 ADD MSTORE PUSH1 0x84 ADD PUSH2 0x94E JUMP JUMPDEST PUSH2 0x2084 PUSH1 0x0 DUP3 PUSH2 0x1E3B JUMP JUMPDEST PUSH1 0x1 PUSH1 0x1 PUSH1 0xA0 SHL SUB DUP4 AND PUSH1 0x0 SWAP1 DUP2 MSTORE PUSH1 0x3 PUSH1 0x20 MSTORE PUSH1 0x40 DUP2 KECCAK256 DUP1 SLOAD PUSH1 0x1 SWAP3 SWAP1 PUSH2 0x20AD SWAP1 DUP5 SWAP1 PUSH2 0x2D37 JUMP JUMPDEST SWAP1 SWAP2 SSTORE POP POP PUSH1 0x1 PUSH1 0x1 PUSH1 0xA0 SHL SUB DUP3 AND PUSH1 0x0 SWAP1 DUP2 MSTORE PUSH1 0x3 PUSH1 0x20 MSTORE PUSH1 0x40 DUP2 KECCAK256 DUP1 SLOAD PUSH1 0x1 SWAP3 SWAP1 PUSH2 0x20DB SWAP1 DUP5 SWAP1 PUSH2 0x2D1F JUMP JUMPDEST SWAP1 SWAP2 SSTORE POP POP PUSH1 0x0 DUP2 DUP2 MSTORE PUSH1 0x2 PUSH1 0x20 MSTORE PUSH1 0x40 DUP1 DUP3 KECCAK256 DUP1 SLOAD PUSH1 0x1 PUSH1 0x1 PUSH1 0xA0 SHL SUB NOT AND PUSH1 0x1 PUSH1 0x1 PUSH1 0xA0 SHL SUB DUP7 DUP2 AND SWAP2 DUP3 OR SWAP1 SWAP3 SSTORE SWAP2 MLOAD DUP5 SWAP4 SWAP2 DUP8 AND SWAP2 PUSH32 0xDDF252AD1BE2C89B69C2B068FC378DAA952BA7F163C4A11628F55A4DF523B3EF SWAP2 LOG4 POP POP POP JUMP JUMPDEST PUSH1 0x0 PUSH2 0x1C2F DUP3 DUP5 PUSH2 0x2D4E JUMP JUMPDEST PUSH1 0x0 PUSH2 0x1C2F DUP3 DUP5 PUSH2 0x2DEE JUMP JUMPDEST PUSH1 0x40 MLOAD PUSH1 0x1 PUSH1 0x1 PUSH1 0xA0 SHL SUB DUP4 AND SWAP1 DUP3 ISZERO PUSH2 0x8FC MUL SWAP1 DUP4 SWAP1 PUSH1 0x0 DUP2 DUP2 DUP2 DUP6 DUP9 DUP9 CALL SWAP4 POP POP POP POP ISZERO DUP1 ISZERO PUSH2 0xBA2 JUMPI RETURNDATASIZE PUSH1 0x0 DUP1 RETURNDATACOPY RETURNDATASIZE PUSH1 0x0 REVERT JUMPDEST PUSH1 0x0 PUSH2 0x2195 DUP3 PUSH2 0xF30 JUMP JUMPDEST SWAP1 POP PUSH2 0x21A2 PUSH1 0x0 DUP4 PUSH2 0x1E3B JUMP JUMPDEST PUSH1 0x1 PUSH1 0x1 PUSH1 0xA0 SHL SUB DUP2 AND PUSH1 0x0 SWAP1 DUP2 MSTORE PUSH1 0x3 PUSH1 0x20 MSTORE PUSH1 0x40 DUP2 KECCAK256 DUP1 SLOAD PUSH1 0x1 SWAP3 SWAP1 PUSH2 0x21CB SWAP1 DUP5 SWAP1 PUSH2 0x2D37 JUMP JUMPDEST SWAP1 SWAP2 SSTORE POP POP PUSH1 0x0 DUP3 DUP2 MSTORE PUSH1 0x2 PUSH1 0x20 MSTORE PUSH1 0x40 DUP1 DUP3 KECCAK256 DUP1 SLOAD PUSH1 0x1 PUSH1 0x1 PUSH1 0xA0 SHL SUB NOT AND SWAP1 SSTORE MLOAD DUP4 SWAP2 SWAP1 PUSH1 0x1 PUSH1 0x1 PUSH1 0xA0 SHL SUB DUP5 AND SWAP1 PUSH32 0xDDF252AD1BE2C89B69C2B068FC378DAA952BA7F163C4A11628F55A4DF523B3EF SWAP1 DUP4 SWAP1 LOG4 POP POP JUMP JUMPDEST PUSH1 0x6 DUP1 SLOAD PUSH1 0x1 PUSH1 0x1 PUSH1 0xA0 SHL SUB DUP4 DUP2 AND PUSH1 0x1 PUSH1 0x1 PUSH1 0xA0 SHL SUB NOT DUP4 AND DUP2 OR SWAP1 SWAP4 SSTORE PUSH1 0x40 MLOAD SWAP2 AND SWAP2 SWAP1 DUP3 SWAP1 PUSH32 0x8BE0079C531659141344CD1FD0A4F28419497F9722A3DAAFE3B4186F6B6457E0 SWAP1 PUSH1 0x0 SWAP1 LOG3 POP POP JUMP JUMPDEST PUSH1 0x0 DUP1 PUSH2 0x2282 PUSH2 0x1D5C JUMP JUMPDEST GT PUSH2 0x22CF JUMPI PUSH1 0x40 MLOAD PUSH3 0x461BCD PUSH1 0xE5 SHL DUP2 MSTORE PUSH1 0x20 PUSH1 0x4 DUP3 ADD MSTORE PUSH1 0x18 PUSH1 0x24 DUP3 ADD MSTORE PUSH32 0x4E6F206D6F726520746F6B656E7320617661696C61626C650000000000000000 PUSH1 0x44 DUP3 ADD MSTORE PUSH1 0x64 ADD PUSH2 0x94E JUMP JUMPDEST PUSH1 0x0 PUSH2 0x22D9 PUSH2 0x13AF JUMP JUMPDEST PUSH1 0x8 SLOAD PUSH2 0x22E6 SWAP2 SWAP1 PUSH2 0x2D37 JUMP JUMPDEST PUSH1 0x40 MLOAD PUSH12 0xFFFFFFFFFFFFFFFFFFFFFFFF NOT CALLER PUSH1 0x60 SWAP1 DUP2 SHL DUP3 AND PUSH1 0x20 DUP5 ADD MSTORE COINBASE SWAP1 SHL AND PUSH1 0x34 DUP3 ADD MSTORE DIFFICULTY PUSH1 0x48 DUP3 ADD MSTORE GASLIMIT PUSH1 0x68 DUP3 ADD MSTORE TIMESTAMP PUSH1 0x88 DUP3 ADD MSTORE SWAP1 SWAP2 POP PUSH1 0x0 SWAP1 DUP3 SWAP1 PUSH1 0xA8 ADD PUSH1 0x40 MLOAD PUSH1 0x20 DUP2 DUP4 SUB SUB DUP2 MSTORE SWAP1 PUSH1 0x40 MSTORE DUP1 MLOAD SWAP1 PUSH1 0x20 ADD KECCAK256 PUSH1 0x0 SHR PUSH2 0x234D SWAP2 SWAP1 PUSH2 0x2E02 JUMP JUMPDEST PUSH1 0x0 DUP2 DUP2 MSTORE PUSH1 0x9 PUSH1 0x20 MSTORE PUSH1 0x40 DUP2 KECCAK256 SLOAD SWAP2 SWAP3 POP SWAP1 PUSH2 0x236B JUMPI POP DUP1 PUSH2 0x237C JUMP JUMPDEST POP PUSH1 0x0 DUP2 DUP2 MSTORE PUSH1 0x9 PUSH1 0x20 MSTORE PUSH1 0x40 SWAP1 KECCAK256 SLOAD JUMPDEST PUSH1 0x9 PUSH1 0x0 PUSH2 0x238B PUSH1 0x1 DUP7 PUSH2 0x2D37 JUMP JUMPDEST DUP2 MSTORE PUSH1 0x20 ADD SWAP1 DUP2 MSTORE PUSH1 0x20 ADD PUSH1 0x0 KECCAK256 SLOAD PUSH1 0x0 EQ ISZERO PUSH2 0x23C1 JUMPI PUSH2 0x23AD PUSH1 0x1 DUP5 PUSH2 0x2D37 JUMP JUMPDEST PUSH1 0x0 DUP4 DUP2 MSTORE PUSH1 0x9 PUSH1 0x20 MSTORE PUSH1 0x40 SWAP1 KECCAK256 SSTORE PUSH2 0x23F1 JUMP JUMPDEST PUSH1 0x9 PUSH1 0x0 PUSH2 0x23D0 PUSH1 0x1 DUP7 PUSH2 0x2D37 JUMP JUMPDEST DUP2 MSTORE PUSH1 0x20 DUP1 DUP3 ADD SWAP3 SWAP1 SWAP3 MSTORE PUSH1 0x40 SWAP1 DUP2 ADD PUSH1 0x0 SWAP1 DUP2 KECCAK256 SLOAD DUP6 DUP3 MSTORE PUSH1 0x9 SWAP1 SWAP4 MSTORE KECCAK256 SSTORE JUMPDEST PUSH2 0x23F9 PUSH2 0x253A JUMP JUMPDEST POP PUSH1 0xA SLOAD PUSH2 0x2407 SWAP1 DUP3 PUSH2 0x2D1F JUMP JUMPDEST SWAP4 POP POP POP POP SWAP1 JUMP JUMPDEST PUSH2 0xF2C DUP3 DUP3 PUSH1 0x40 MLOAD DUP1 PUSH1 0x20 ADD PUSH1 0x40 MSTORE DUP1 PUSH1 0x0 DUP2 MSTORE POP PUSH2 0x255B JUMP JUMPDEST DUP2 PUSH1 0x1 PUSH1 0x1 PUSH1 0xA0 SHL SUB AND DUP4 PUSH1 0x1 PUSH1 0x1 PUSH1 0xA0 SHL SUB AND EQ ISZERO PUSH2 0x248B JUMPI PUSH1 0x40 MLOAD PUSH3 0x461BCD PUSH1 0xE5 SHL DUP2 MSTORE PUSH1 0x20 PUSH1 0x4 DUP3 ADD MSTORE PUSH1 0x19 PUSH1 0x24 DUP3 ADD MSTORE PUSH32 0x4552433732313A20617070726F766520746F2063616C6C657200000000000000 PUSH1 0x44 DUP3 ADD MSTORE PUSH1 0x64 ADD PUSH2 0x94E JUMP JUMPDEST PUSH1 0x1 PUSH1 0x1 PUSH1 0xA0 SHL SUB DUP4 DUP2 AND PUSH1 0x0 DUP2 DUP2 MSTORE PUSH1 0x5 PUSH1 0x20 SWAP1 DUP2 MSTORE PUSH1 0x40 DUP1 DUP4 KECCAK256 SWAP5 DUP8 AND DUP1 DUP5 MSTORE SWAP5 DUP3 MSTORE SWAP2 DUP3 SWAP1 KECCAK256 DUP1 SLOAD PUSH1 0xFF NOT AND DUP7 ISZERO ISZERO SWAP1 DUP2 OR SWAP1 SWAP2 SSTORE SWAP2 MLOAD SWAP2 DUP3 MSTORE PUSH32 0x17307EAB39AB6107E8899845AD3D59BD9653F200F220920489CA2B5937696C31 SWAP2 ADD PUSH1 0x40 MLOAD DUP1 SWAP2 SUB SWAP1 LOG3 POP POP POP JUMP JUMPDEST PUSH2 0x2503 DUP5 DUP5 DUP5 PUSH2 0x1FA0 JUMP JUMPDEST PUSH2 0x250F DUP5 DUP5 DUP5 DUP5 PUSH2 0x258E JUMP JUMPDEST PUSH2 0xD04 JUMPI PUSH1 0x40 MLOAD PUSH3 0x461BCD PUSH1 0xE5 SHL DUP2 MSTORE PUSH1 0x4 ADD PUSH2 0x94E SWAP1 PUSH2 0x2E16 JUMP JUMPDEST PUSH1 0x60 PUSH1 0x16 DUP1 SLOAD PUSH2 0x979 SWAP1 PUSH2 0x2C4C JUMP JUMPDEST PUSH1 0x0 DUP1 PUSH2 0x2546 PUSH1 0x7 SLOAD SWAP1 JUMP JUMPDEST SWAP1 POP PUSH2 0x2556 PUSH1 0x7 DUP1 SLOAD PUSH1 0x1 ADD SWAP1 SSTORE JUMP JUMPDEST SWAP2 SWAP1 POP JUMP JUMPDEST PUSH2 0x2565 DUP4 DUP4 PUSH2 0x268C JUMP JUMPDEST PUSH2 0x2572 PUSH1 0x0 DUP5 DUP5 DUP5 PUSH2 0x258E JUMP JUMPDEST PUSH2 0xBA2 JUMPI PUSH1 0x40 MLOAD PUSH3 0x461BCD PUSH1 0xE5 SHL DUP2 MSTORE PUSH1 0x4 ADD PUSH2 0x94E SWAP1 PUSH2 0x2E16 JUMP JUMPDEST PUSH1 0x0 PUSH1 0x1 PUSH1 0x1 PUSH1 0xA0 SHL SUB DUP5 AND EXTCODESIZE ISZERO PUSH2 0x2681 JUMPI PUSH1 0x40 MLOAD PUSH4 0xA85BD01 PUSH1 0xE1 SHL DUP2 MSTORE PUSH1 0x1 PUSH1 0x1 PUSH1 0xA0 SHL SUB DUP6 AND SWAP1 PUSH4 0x150B7A02 SWAP1 PUSH2 0x25D2 SWAP1 CALLER SWAP1 DUP10 SWAP1 DUP9 SWAP1 DUP9 SWAP1 PUSH1 0x4 ADD PUSH2 0x2E68 JUMP JUMPDEST PUSH1 0x20 PUSH1 0x40 MLOAD DUP1 DUP4 SUB DUP2 PUSH1 0x0 DUP8 GAS CALL SWAP3 POP POP POP DUP1 ISZERO PUSH2 0x260D JUMPI POP PUSH1 0x40 DUP1 MLOAD PUSH1 0x1F RETURNDATASIZE SWAP1 DUP2 ADD PUSH1 0x1F NOT AND DUP3 ADD SWAP1 SWAP3 MSTORE PUSH2 0x260A SWAP2 DUP2 ADD SWAP1 PUSH2 0x2EA5 JUMP JUMPDEST PUSH1 0x1 JUMPDEST PUSH2 0x2667 JUMPI RETURNDATASIZE DUP1 DUP1 ISZERO PUSH2 0x263B JUMPI PUSH1 0x40 MLOAD SWAP2 POP PUSH1 0x1F NOT PUSH1 0x3F RETURNDATASIZE ADD AND DUP3 ADD PUSH1 0x40 MSTORE RETURNDATASIZE DUP3 MSTORE RETURNDATASIZE PUSH1 0x0 PUSH1 0x20 DUP5 ADD RETURNDATACOPY PUSH2 0x2640 JUMP JUMPDEST PUSH1 0x60 SWAP2 POP JUMPDEST POP DUP1 MLOAD PUSH2 0x265F JUMPI PUSH1 0x40 MLOAD PUSH3 0x461BCD PUSH1 0xE5 SHL DUP2 MSTORE PUSH1 0x4 ADD PUSH2 0x94E SWAP1 PUSH2 0x2E16 JUMP JUMPDEST DUP1 MLOAD DUP2 PUSH1 0x20 ADD REVERT JUMPDEST PUSH1 0x1 PUSH1 0x1 PUSH1 0xE0 SHL SUB NOT AND PUSH4 0xA85BD01 PUSH1 0xE1 SHL EQ SWAP1 POP PUSH2 0x1F98 JUMP JUMPDEST POP PUSH1 0x1 SWAP5 SWAP4 POP POP POP POP JUMP JUMPDEST PUSH1 0x1 PUSH1 0x1 PUSH1 0xA0 SHL SUB DUP3 AND PUSH2 0x26E2 JUMPI PUSH1 0x40 MLOAD PUSH3 0x461BCD PUSH1 0xE5 SHL DUP2 MSTORE PUSH1 0x20 PUSH1 0x4 DUP3 ADD DUP2 SWAP1 MSTORE PUSH1 0x24 DUP3 ADD MSTORE PUSH32 0x4552433732313A206D696E7420746F20746865207A65726F2061646472657373 PUSH1 0x44 DUP3 ADD MSTORE PUSH1 0x64 ADD PUSH2 0x94E JUMP JUMPDEST PUSH1 0x0 DUP2 DUP2 MSTORE PUSH1 0x2 PUSH1 0x20 MSTORE PUSH1 0x40 SWAP1 KECCAK256 SLOAD PUSH1 0x1 PUSH1 0x1 PUSH1 0xA0 SHL SUB AND ISZERO PUSH2 0x2747 JUMPI PUSH1 0x40 MLOAD PUSH3 0x461BCD PUSH1 0xE5 SHL DUP2 MSTORE PUSH1 0x20 PUSH1 0x4 DUP3 ADD MSTORE PUSH1 0x1C PUSH1 0x24 DUP3 ADD MSTORE PUSH32 0x4552433732313A20746F6B656E20616C7265616479206D696E74656400000000 PUSH1 0x44 DUP3 ADD MSTORE PUSH1 0x64 ADD PUSH2 0x94E JUMP JUMPDEST PUSH1 0x1 PUSH1 0x1 PUSH1 0xA0 SHL SUB DUP3 AND PUSH1 0x0 SWAP1 DUP2 MSTORE PUSH1 0x3 PUSH1 0x20 MSTORE PUSH1 0x40 DUP2 KECCAK256 DUP1 SLOAD PUSH1 0x1 SWAP3 SWAP1 PUSH2 0x2770 SWAP1 DUP5 SWAP1 PUSH2 0x2D1F JUMP JUMPDEST SWAP1 SWAP2 SSTORE POP POP PUSH1 0x0 DUP2 DUP2 MSTORE PUSH1 0x2 PUSH1 0x20 MSTORE PUSH1 0x40 DUP1 DUP3 KECCAK256 DUP1 SLOAD PUSH1 0x1 PUSH1 0x1 PUSH1 0xA0 SHL SUB NOT AND PUSH1 0x1 PUSH1 0x1 PUSH1 0xA0 SHL SUB DUP7 AND SWAP1 DUP2 OR SWAP1 SWAP2 SSTORE SWAP1 MLOAD DUP4 SWAP3 SWAP1 PUSH32 0xDDF252AD1BE2C89B69C2B068FC378DAA952BA7F163C4A11628F55A4DF523B3EF SWAP1 DUP3 SWAP1 LOG4 POP POP JUMP JUMPDEST DUP3 DUP1 SLOAD PUSH2 0x27DA SWAP1 PUSH2 0x2C4C JUMP JUMPDEST SWAP1 PUSH1 0x0 MSTORE PUSH1 0x20 PUSH1 0x0 KECCAK256 SWAP1 PUSH1 0x1F ADD PUSH1 0x20 SWAP1 DIV DUP2 ADD SWAP3 DUP3 PUSH2 0x27FC JUMPI PUSH1 0x0 DUP6 SSTORE PUSH2 0x2842 JUMP JUMPDEST DUP3 PUSH1 0x1F LT PUSH2 0x2815 JUMPI DUP1 MLOAD PUSH1 0xFF NOT AND DUP4 DUP1 ADD OR DUP6 SSTORE PUSH2 0x2842 JUMP JUMPDEST DUP3 DUP1 ADD PUSH1 0x1 ADD DUP6 SSTORE DUP3 ISZERO PUSH2 0x2842 JUMPI SWAP2 DUP3 ADD JUMPDEST DUP3 DUP2 GT ISZERO PUSH2 0x2842 JUMPI DUP3 MLOAD DUP3 SSTORE SWAP2 PUSH1 0x20 ADD SWAP2 SWAP1 PUSH1 0x1 ADD SWAP1 PUSH2 0x2827 JUMP JUMPDEST POP PUSH2 0x284E SWAP3 SWAP2 POP PUSH2 0x2871 JUMP JUMPDEST POP SWAP1 JUMP JUMPDEST PUSH1 0x40 MLOAD DUP1 PUSH2 0x160 ADD PUSH1 0x40 MSTORE DUP1 PUSH1 0xB SWAP1 PUSH1 0x20 DUP3 MUL DUP1 CALLDATASIZE DUP4 CALLDATACOPY POP SWAP2 SWAP3 SWAP2 POP POP JUMP JUMPDEST JUMPDEST DUP1 DUP3 GT ISZERO PUSH2 0x284E JUMPI PUSH1 0x0 DUP2 SSTORE PUSH1 0x1 ADD PUSH2 0x2872 JUMP JUMPDEST PUSH1 0x1 PUSH1 0x1 PUSH1 0xE0 SHL SUB NOT DUP2 AND DUP2 EQ PUSH2 0xD9C JUMPI PUSH1 0x0 DUP1 REVERT JUMPDEST PUSH1 0x0 PUSH1 0x20 DUP3 DUP5 SUB SLT ISZERO PUSH2 0x28AE JUMPI PUSH1 0x0 DUP1 REVERT JUMPDEST DUP2 CALLDATALOAD PUSH2 0x1C2F DUP2 PUSH2 0x2886 JUMP JUMPDEST DUP1 CALLDATALOAD DUP1 ISZERO ISZERO DUP2 EQ PUSH2 0x2556 JUMPI PUSH1 0x0 DUP1 REVERT JUMPDEST PUSH1 0x0 PUSH1 0x20 DUP3 DUP5 SUB SLT ISZERO PUSH2 0x28DB JUMPI PUSH1 0x0 DUP1 REVERT JUMPDEST PUSH2 0x1C2F DUP3 PUSH2 0x28B9 JUMP JUMPDEST DUP1 CALLDATALOAD PUSH1 0x1 PUSH1 0x1 PUSH1 0xA0 SHL SUB DUP2 AND DUP2 EQ PUSH2 0x2556 JUMPI PUSH1 0x0 DUP1 REVERT JUMPDEST PUSH1 0x0 PUSH1 0x20 DUP3 DUP5 SUB SLT ISZERO PUSH2 0x290D JUMPI PUSH1 0x0 DUP1 REVERT JUMPDEST PUSH2 0x1C2F DUP3 PUSH2 0x28E4 JUMP JUMPDEST PUSH1 0x0 JUMPDEST DUP4 DUP2 LT ISZERO PUSH2 0x2931 JUMPI DUP2 DUP2 ADD MLOAD DUP4 DUP3 ADD MSTORE PUSH1 0x20 ADD PUSH2 0x2919 JUMP JUMPDEST DUP4 DUP2 GT ISZERO PUSH2 0xD04 JUMPI POP POP PUSH1 0x0 SWAP2 ADD MSTORE JUMP JUMPDEST PUSH1 0x0 DUP2 MLOAD DUP1 DUP5 MSTORE PUSH2 0x295A DUP2 PUSH1 0x20 DUP7 ADD PUSH1 0x20 DUP7 ADD PUSH2 0x2916 JUMP JUMPDEST PUSH1 0x1F ADD PUSH1 0x1F NOT AND SWAP3 SWAP1 SWAP3 ADD PUSH1 0x20 ADD SWAP3 SWAP2 POP POP JUMP JUMPDEST PUSH1 0x20 DUP2 MSTORE PUSH1 0x0 PUSH2 0x1C2F PUSH1 0x20 DUP4 ADD DUP5 PUSH2 0x2942 JUMP JUMPDEST PUSH1 0x0 PUSH1 0x20 DUP3 DUP5 SUB SLT ISZERO PUSH2 0x2993 JUMPI PUSH1 0x0 DUP1 REVERT JUMPDEST POP CALLDATALOAD SWAP2 SWAP1 POP JUMP JUMPDEST PUSH1 0x0 DUP1 PUSH1 0x40 DUP4 DUP6 SUB SLT ISZERO PUSH2 0x29AD JUMPI PUSH1 0x0 DUP1 REVERT JUMPDEST PUSH2 0x29B6 DUP4 PUSH2 0x28E4 JUMP JUMPDEST SWAP5 PUSH1 0x20 SWAP4 SWAP1 SWAP4 ADD CALLDATALOAD SWAP4 POP POP POP JUMP JUMPDEST PUSH1 0x0 DUP1 PUSH1 0x0 PUSH1 0x60 DUP5 DUP7 SUB SLT ISZERO PUSH2 0x29D9 JUMPI PUSH1 0x0 DUP1 REVERT JUMPDEST PUSH2 0x29E2 DUP5 PUSH2 0x28E4 JUMP JUMPDEST SWAP3 POP PUSH2 0x29F0 PUSH1 0x20 DUP6 ADD PUSH2 0x28E4 JUMP JUMPDEST SWAP2 POP PUSH1 0x40 DUP5 ADD CALLDATALOAD SWAP1 POP SWAP3 POP SWAP3 POP SWAP3 JUMP JUMPDEST PUSH1 0x0 DUP1 PUSH1 0x20 DUP4 DUP6 SUB SLT ISZERO PUSH2 0x2A13 JUMPI PUSH1 0x0 DUP1 REVERT JUMPDEST DUP3 CALLDATALOAD PUSH8 0xFFFFFFFFFFFFFFFF DUP1 DUP3 GT ISZERO PUSH2 0x2A2B JUMPI PUSH1 0x0 DUP1 REVERT JUMPDEST DUP2 DUP6 ADD SWAP2 POP DUP6 PUSH1 0x1F DUP4 ADD SLT PUSH2 0x2A3F JUMPI PUSH1 0x0 DUP1 REVERT JUMPDEST DUP2 CALLDATALOAD DUP2 DUP2 GT ISZERO PUSH2 0x2A4E JUMPI PUSH1 0x0 DUP1 REVERT JUMPDEST DUP7 PUSH1 0x20 DUP3 PUSH1 0x5 SHL DUP6 ADD ADD GT ISZERO PUSH2 0x2A63 JUMPI PUSH1 0x0 DUP1 REVERT JUMPDEST PUSH1 0x20 SWAP3 SWAP1 SWAP3 ADD SWAP7 SWAP2 SWAP6 POP SWAP1 SWAP4 POP POP POP POP JUMP JUMPDEST PUSH4 0x4E487B71 PUSH1 0xE0 SHL PUSH1 0x0 MSTORE PUSH1 0x41 PUSH1 0x4 MSTORE PUSH1 0x24 PUSH1 0x0 REVERT JUMPDEST PUSH1 0x0 PUSH8 0xFFFFFFFFFFFFFFFF DUP1 DUP5 GT ISZERO PUSH2 0x2AA6 JUMPI PUSH2 0x2AA6 PUSH2 0x2A75 JUMP JUMPDEST PUSH1 0x40 MLOAD PUSH1 0x1F DUP6 ADD PUSH1 0x1F NOT SWAP1 DUP2 AND PUSH1 0x3F ADD AND DUP2 ADD SWAP1 DUP3 DUP3 GT DUP2 DUP4 LT OR ISZERO PUSH2 0x2ACE JUMPI PUSH2 0x2ACE PUSH2 0x2A75 JUMP JUMPDEST DUP2 PUSH1 0x40 MSTORE DUP1 SWAP4 POP DUP6 DUP2 MSTORE DUP7 DUP7 DUP7 ADD GT ISZERO PUSH2 0x2AE7 JUMPI PUSH1 0x0 DUP1 REVERT JUMPDEST DUP6 DUP6 PUSH1 0x20 DUP4 ADD CALLDATACOPY PUSH1 0x0 PUSH1 0x20 DUP8 DUP4 ADD ADD MSTORE POP POP POP SWAP4 SWAP3 POP POP POP JUMP JUMPDEST PUSH1 0x0 PUSH1 0x20 DUP3 DUP5 SUB SLT ISZERO PUSH2 0x2B13 JUMPI PUSH1 0x0 DUP1 REVERT JUMPDEST DUP2 CALLDATALOAD PUSH8 0xFFFFFFFFFFFFFFFF DUP2 GT ISZERO PUSH2 0x2B2A JUMPI PUSH1 0x0 DUP1 REVERT JUMPDEST DUP3 ADD PUSH1 0x1F DUP2 ADD DUP5 SGT PUSH2 0x2B3B JUMPI PUSH1 0x0 DUP1 REVERT JUMPDEST PUSH2 0x1F98 DUP5 DUP3 CALLDATALOAD PUSH1 0x20 DUP5 ADD PUSH2 0x2A8B JUMP JUMPDEST PUSH1 0x0 DUP1 PUSH1 0x40 DUP4 DUP6 SUB SLT ISZERO PUSH2 0x2B5D JUMPI PUSH1 0x0 DUP1 REVERT JUMPDEST PUSH2 0x2B66 DUP4 PUSH2 0x28E4 JUMP JUMPDEST SWAP2 POP PUSH2 0x2B74 PUSH1 0x20 DUP5 ADD PUSH2 0x28B9 JUMP JUMPDEST SWAP1 POP SWAP3 POP SWAP3 SWAP1 POP JUMP JUMPDEST PUSH1 0x0 DUP1 PUSH1 0x0 DUP1 PUSH1 0x80 DUP6 DUP8 SUB SLT ISZERO PUSH2 0x2B93 JUMPI PUSH1 0x0 DUP1 REVERT JUMPDEST PUSH2 0x2B9C DUP6 PUSH2 0x28E4 JUMP JUMPDEST SWAP4 POP PUSH2 0x2BAA PUSH1 0x20 DUP7 ADD PUSH2 0x28E4 JUMP JUMPDEST SWAP3 POP PUSH1 0x40 DUP6 ADD CALLDATALOAD SWAP2 POP PUSH1 0x60 DUP6 ADD CALLDATALOAD PUSH8 0xFFFFFFFFFFFFFFFF DUP2 GT ISZERO PUSH2 0x2BCD JUMPI PUSH1 0x0 DUP1 REVERT JUMPDEST DUP6 ADD PUSH1 0x1F DUP2 ADD DUP8 SGT PUSH2 0x2BDE JUMPI PUSH1 0x0 DUP1 REVERT JUMPDEST PUSH2 0x2BED DUP8 DUP3 CALLDATALOAD PUSH1 0x20 DUP5 ADD PUSH2 0x2A8B JUMP JUMPDEST SWAP2 POP POP SWAP3 SWAP6 SWAP2 SWAP5 POP SWAP3 POP JUMP JUMPDEST PUSH1 0x0 DUP1 PUSH1 0x40 DUP4 DUP6 SUB SLT ISZERO PUSH2 0x2C0C JUMPI PUSH1 0x0 DUP1 REVERT JUMPDEST PUSH2 0x2C15 DUP4 PUSH2 0x28E4 JUMP JUMPDEST SWAP2 POP PUSH2 0x2B74 PUSH1 0x20 DUP5 ADD PUSH2 0x28E4 JUMP JUMPDEST PUSH1 0x20 DUP1 DUP3 MSTORE PUSH1 0xF SWAP1 DUP3 ADD MSTORE PUSH15 0x4E6F7420617574686F72697A656421 PUSH1 0x88 SHL PUSH1 0x40 DUP3 ADD MSTORE PUSH1 0x60 ADD SWAP1 JUMP JUMPDEST PUSH1 0x1 DUP2 DUP2 SHR SWAP1 DUP3 AND DUP1 PUSH2 0x2C60 JUMPI PUSH1 0x7F DUP3 AND SWAP2 POP JUMPDEST PUSH1 0x20 DUP3 LT DUP2 EQ ISZERO PUSH2 0x2C81 JUMPI PUSH4 0x4E487B71 PUSH1 0xE0 SHL PUSH1 0x0 MSTORE PUSH1 0x22 PUSH1 0x4 MSTORE PUSH1 0x24 PUSH1 0x0 REVERT JUMPDEST POP SWAP2 SWAP1 POP JUMP JUMPDEST PUSH1 0x20 DUP1 DUP3 MSTORE PUSH1 0x31 SWAP1 DUP3 ADD MSTORE PUSH32 0x4552433732313A207472616E736665722063616C6C6572206973206E6F74206F PUSH1 0x40 DUP3 ADD MSTORE PUSH17 0x1DDB995C881B9BDC88185C1C1C9BDD9959 PUSH1 0x7A SHL PUSH1 0x60 DUP3 ADD MSTORE PUSH1 0x80 ADD SWAP1 JUMP JUMPDEST PUSH4 0x4E487B71 PUSH1 0xE0 SHL PUSH1 0x0 MSTORE PUSH1 0x32 PUSH1 0x4 MSTORE PUSH1 0x24 PUSH1 0x0 REVERT JUMPDEST PUSH4 0x4E487B71 PUSH1 0xE0 SHL PUSH1 0x0 MSTORE PUSH1 0x11 PUSH1 0x4 MSTORE PUSH1 0x24 PUSH1 0x0 REVERT JUMPDEST PUSH1 0x0 PUSH1 0x0 NOT DUP3 EQ ISZERO PUSH2 0x2D18 JUMPI PUSH2 0x2D18 PUSH2 0x2CEE JUMP JUMPDEST POP PUSH1 0x1 ADD SWAP1 JUMP JUMPDEST PUSH1 0x0 DUP3 NOT DUP3 GT ISZERO PUSH2 0x2D32 JUMPI PUSH2 0x2D32 PUSH2 0x2CEE JUMP JUMPDEST POP ADD SWAP1 JUMP JUMPDEST PUSH1 0x0 DUP3 DUP3 LT ISZERO PUSH2 0x2D49 JUMPI PUSH2 0x2D49 PUSH2 0x2CEE JUMP JUMPDEST POP SUB SWAP1 JUMP JUMPDEST PUSH1 0x0 DUP2 PUSH1 0x0 NOT DIV DUP4 GT DUP3 ISZERO ISZERO AND ISZERO PUSH2 0x2D68 JUMPI PUSH2 0x2D68 PUSH2 0x2CEE JUMP JUMPDEST POP MUL SWAP1 JUMP JUMPDEST PUSH2 0x160 DUP2 ADD DUP2 DUP4 PUSH1 0x0 JUMPDEST PUSH1 0xB DUP2 LT ISZERO PUSH2 0x2D9F JUMPI DUP2 MLOAD PUSH1 0x1 PUSH1 0x1 PUSH1 0xA0 SHL SUB AND DUP4 MSTORE PUSH1 0x20 SWAP3 DUP4 ADD SWAP3 SWAP1 SWAP2 ADD SWAP1 PUSH1 0x1 ADD PUSH2 0x2D77 JUMP JUMPDEST POP POP POP SWAP3 SWAP2 POP POP JUMP JUMPDEST PUSH1 0x0 DUP4 MLOAD PUSH2 0x2DBA DUP2 DUP5 PUSH1 0x20 DUP9 ADD PUSH2 0x2916 JUMP JUMPDEST SWAP2 SWAP1 SWAP2 ADD SWAP2 DUP3 MSTORE POP PUSH5 0x173539B7B7 PUSH1 0xD9 SHL PUSH1 0x20 DUP3 ADD MSTORE PUSH1 0x25 ADD SWAP2 SWAP1 POP JUMP JUMPDEST PUSH4 0x4E487B71 PUSH1 0xE0 SHL PUSH1 0x0 MSTORE PUSH1 0x12 PUSH1 0x4 MSTORE PUSH1 0x24 PUSH1 0x0 REVERT JUMPDEST PUSH1 0x0 DUP3 PUSH2 0x2DFD JUMPI PUSH2 0x2DFD PUSH2 0x2DD8 JUMP JUMPDEST POP DIV SWAP1 JUMP JUMPDEST PUSH1 0x0 DUP3 PUSH2 0x2E11 JUMPI PUSH2 0x2E11 PUSH2 0x2DD8 JUMP JUMPDEST POP MOD SWAP1 JUMP JUMPDEST PUSH1 0x20 DUP1 DUP3 MSTORE PUSH1 0x32 SWAP1 DUP3 ADD MSTORE PUSH32 0x4552433732313A207472616E7366657220746F206E6F6E204552433732315265 PUSH1 0x40 DUP3 ADD MSTORE PUSH18 0x31B2B4BB32B91034B6B83632B6B2B73A32B9 PUSH1 0x71 SHL PUSH1 0x60 DUP3 ADD MSTORE PUSH1 0x80 ADD SWAP1 JUMP JUMPDEST PUSH1 0x1 PUSH1 0x1 PUSH1 0xA0 SHL SUB DUP6 DUP2 AND DUP3 MSTORE DUP5 AND PUSH1 0x20 DUP3 ADD MSTORE PUSH1 0x40 DUP2 ADD DUP4 SWAP1 MSTORE PUSH1 0x80 PUSH1 0x60 DUP3 ADD DUP2 SWAP1 MSTORE PUSH1 0x0 SWAP1 PUSH2 0x2E9B SWAP1 DUP4 ADD DUP5 PUSH2 0x2942 JUMP JUMPDEST SWAP7 SWAP6 POP POP POP POP POP POP JUMP JUMPDEST PUSH1 0x0 PUSH1 0x20 DUP3 DUP5 SUB SLT ISZERO PUSH2 0x2EB7 JUMPI PUSH1 0x0 DUP1 REVERT JUMPDEST DUP2 MLOAD PUSH2 0x1C2F DUP2 PUSH2 0x2886 JUMP INVALID LOG2 PUSH5 0x6970667358 0x22 SLT KECCAK256 PUSH20 0x83BCA868CE074D4247D28D17DEF7056304530309 CALL 0xA6 0xEB 0xB6 0x24 0xC2 BLOCKHASH 0xC9 PUSH12 0x8A0164736F6C634300080C00 CALLER PUSH9 0x747470733A2F2F6E65 PUSH19 0x6479636F646572636C6F6E65732E6F6E6C696E PUSH6 0x2F6D65746564 PUSH2 0x7461 0x2F PUSH9 0x747470733A2F2F6970 PUSH7 0x732E696F2F6970 PUSH7 0x732F516D587241 SELFBALANCE PUSH8 0x7559444A316E4876 MSTORE8 CHAINID 0x4E MSIZE MSIZE CALLDATACOPY GASLIMIT CALLDATASIZE PUSH23 0x714B39796137317A644471553948756E4257485636622F BALANCE 0x2E PUSH11 0x736F6E0000000000000000 "
		},
		"gasEstimates": {
			"creation": {
				"codeDepositCost": "2404800",
				"executionCost": "infinite",
				"totalCost": "infinite"
			},
			"external": {
				"addToWhitelist(address[])": "infinite",
				"addressMintedBalance(address)": "2587",
				"allOwners()": "infinite",
				"approve(address,uint256)": "infinite",
				"availableTokenCount()": "infinite",
				"balanceOf(address)": "2722",
				"baseURI()": "infinite",
				"burn(uint256)": "infinite",
				"everyoneCanMint()": "26717",
				"getApproved(uint256)": "4827",
				"giveAway(address,uint256)": "infinite",
				"isApprovedForAll(address,address)": "infinite",
				"isWhitelisted(address)": "2672",
				"maxMintAmount()": "2385",
				"maxMintAmountWhitelisted()": "2451",
				"maxTokens()": "283",
				"mint(uint256)": "infinite",
				"name()": "infinite",
				"nftPerAddressLimit()": "2384",
				"notRevealedURI()": "infinite",
				"onlyWhitelisted()": "2344",
				"owner()": "2421",
				"ownerOf(uint256)": "2623",
				"pause(bool)": "26819",
				"paused()": "2344",
				"price()": "2384",
				"removeFromWhitelist(address[])": "infinite",
				"renounceOwnership()": "28272",
				"reserved()": "2449",
				"reveal()": "26634",
				"revealed()": "2422",
				"safeTransferFrom(address,address,uint256)": "infinite",
				"safeTransferFrom(address,address,uint256,bytes)": "infinite",
				"setApprovalForAll(address,bool)": "infinite",
				"setBaseURI(string)": "infinite",
				"supportsInterface(bytes4)": "557",
				"symbol()": "infinite",
				"teamMember1()": "260",
				"teamMember2()": "305",
				"teamMember3()": "284",
				"tokenCount()": "2397",
				"tokenURI(uint256)": "infinite",
				"totalSupply()": "2327",
				"transferFrom(address,address,uint256)": "infinite",
				"transferOwnership(address)": "28444",
				"whitelistedAddressClaimed(address)": "2630",
				"whitelistedAddresses(address)": "2611",
				"withdraw()": "infinite"
			},
			"internal": {
				"_baseURI()": "infinite",
				"_withdraw(address,uint256)": "infinite"
			}
		},
		"methodIdentifiers": {
			"addToWhitelist(address[])": "7f649783",
			"addressMintedBalance(address)": "18cae269",
			"allOwners()": "a12a52dc",
			"approve(address,uint256)": "095ea7b3",
			"availableTokenCount()": "e14ca353",
			"balanceOf(address)": "70a08231",
			"baseURI()": "6c0360eb",
			"burn(uint256)": "42966c68",
			"everyoneCanMint()": "99f6516d",
			"getApproved(uint256)": "081812fc",
			"giveAway(address,uint256)": "ca800144",
			"isApprovedForAll(address,address)": "e985e9c5",
			"isWhitelisted(address)": "3af32abf",
			"maxMintAmount()": "239c70ae",
			"maxMintAmountWhitelisted()": "9a2548ca",
			"maxTokens()": "e8315742",
			"mint(uint256)": "a0712d68",
			"name()": "06fdde03",
			"nftPerAddressLimit()": "ba7d2c76",
			"notRevealedURI()": "72250380",
			"onlyWhitelisted()": "9c70b512",
			"owner()": "8da5cb5b",
			"ownerOf(uint256)": "6352211e",
			"pause(bool)": "02329a29",
			"paused()": "5c975abb",
			"price()": "a035b1fe",
			"removeFromWhitelist(address[])": "548db174",
			"renounceOwnership()": "715018a6",
			"reserved()": "fe60d12c",
			"reveal()": "a475b5dd",
			"revealed()": "51830227",
			"safeTransferFrom(address,address,uint256)": "42842e0e",
			"safeTransferFrom(address,address,uint256,bytes)": "b88d4fde",
			"setApprovalForAll(address,bool)": "a22cb465",
			"setBaseURI(string)": "55f804b3",
			"supportsInterface(bytes4)": "01ffc9a7",
			"symbol()": "95d89b41",
			"teamMember1()": "cd22aeea",
			"teamMember2()": "671addf8",
			"teamMember3()": "428ccf68",
			"tokenCount()": "9f181b5e",
			"tokenURI(uint256)": "c87b56dd",
			"totalSupply()": "18160ddd",
			"transferFrom(address,address,uint256)": "23b872dd",
			"transferOwnership(address)": "f2fde38b",
			"whitelistedAddressClaimed(address)": "c4aa1c08",
			"whitelistedAddresses(address)": "06c933d8",
			"withdraw()": "3ccfd60b"
		}
	},
	"abi": [
		{
			"inputs": [],
			"stateMutability": "nonpayable",
			"type": "constructor"
		},
		{
			"anonymous": false,
			"inputs": [
				{
					"indexed": true,
					"internalType": "address",
					"name": "owner",
					"type": "address"
				},
				{
					"indexed": true,
					"internalType": "address",
					"name": "approved",
					"type": "address"
				},
				{
					"indexed": true,
					"internalType": "uint256",
					"name": "tokenId",
					"type": "uint256"
				}
			],
			"name": "Approval",
			"type": "event"
		},
		{
			"anonymous": false,
			"inputs": [
				{
					"indexed": true,
					"internalType": "address",
					"name": "owner",
					"type": "address"
				},
				{
					"indexed": true,
					"internalType": "address",
					"name": "operator",
					"type": "address"
				},
				{
					"indexed": false,
					"internalType": "bool",
					"name": "approved",
					"type": "bool"
				}
			],
			"name": "ApprovalForAll",
			"type": "event"
		},
		{
			"anonymous": false,
			"inputs": [
				{
					"indexed": false,
					"internalType": "address[11]",
					"name": "nftAddress",
					"type": "address[11]"
				}
			],
			"name": "NFTOwners",
			"type": "event"
		},
		{
			"anonymous": false,
			"inputs": [
				{
					"indexed": true,
					"internalType": "address",
					"name": "previousOwner",
					"type": "address"
				},
				{
					"indexed": true,
					"internalType": "address",
					"name": "newOwner",
					"type": "address"
				}
			],
			"name": "OwnershipTransferred",
			"type": "event"
		},
		{
			"anonymous": false,
			"inputs": [
				{
					"indexed": true,
					"internalType": "uint256",
					"name": "supply",
					"type": "uint256"
				}
			],
			"name": "SupplyChanged",
			"type": "event"
		},
		{
			"anonymous": false,
			"inputs": [
				{
					"indexed": true,
					"internalType": "uint256",
					"name": "tokenId",
					"type": "uint256"
				}
			],
			"name": "TokenCreated",
			"type": "event"
		},
		{
			"anonymous": false,
			"inputs": [
				{
					"indexed": true,
					"internalType": "address",
					"name": "from",
					"type": "address"
				},
				{
					"indexed": true,
					"internalType": "address",
					"name": "to",
					"type": "address"
				},
				{
					"indexed": true,
					"internalType": "uint256",
					"name": "tokenId",
					"type": "uint256"
				}
			],
			"name": "Transfer",
			"type": "event"
		},
		{
			"inputs": [
				{
					"internalType": "address[]",
					"name": "_users",
					"type": "address[]"
				}
			],
			"name": "addToWhitelist",
			"outputs": [],
			"stateMutability": "nonpayable",
			"type": "function"
		},
		{
			"inputs": [
				{
					"internalType": "address",
					"name": "",
					"type": "address"
				}
			],
			"name": "addressMintedBalance",
			"outputs": [
				{
					"internalType": "uint256",
					"name": "",
					"type": "uint256"
				}
			],
			"stateMutability": "view",
			"type": "function"
		},
		{
			"inputs": [],
			"name": "allOwners",
			"outputs": [],
			"stateMutability": "nonpayable",
			"type": "function"
		},
		{
			"inputs": [
				{
					"internalType": "address",
					"name": "to",
					"type": "address"
				},
				{
					"internalType": "uint256",
					"name": "tokenId",
					"type": "uint256"
				}
			],
			"name": "approve",
			"outputs": [],
			"stateMutability": "nonpayable",
			"type": "function"
		},
		{
			"inputs": [],
			"name": "availableTokenCount",
			"outputs": [
				{
					"internalType": "uint256",
					"name": "",
					"type": "uint256"
				}
			],
			"stateMutability": "view",
			"type": "function"
		},
		{
			"inputs": [
				{
					"internalType": "address",
					"name": "owner",
					"type": "address"
				}
			],
			"name": "balanceOf",
			"outputs": [
				{
					"internalType": "uint256",
					"name": "",
					"type": "uint256"
				}
			],
			"stateMutability": "view",
			"type": "function"
		},
		{
			"inputs": [],
			"name": "baseURI",
			"outputs": [
				{
					"internalType": "string",
					"name": "",
					"type": "string"
				}
			],
			"stateMutability": "view",
			"type": "function"
		},
		{
			"inputs": [
				{
					"internalType": "uint256",
					"name": "tokenId",
					"type": "uint256"
				}
			],
			"name": "burn",
			"outputs": [],
			"stateMutability": "nonpayable",
			"type": "function"
		},
		{
			"inputs": [],
			"name": "everyoneCanMint",
			"outputs": [],
			"stateMutability": "nonpayable",
			"type": "function"
		},
		{
			"inputs": [
				{
					"internalType": "uint256",
					"name": "tokenId",
					"type": "uint256"
				}
			],
			"name": "getApproved",
			"outputs": [
				{
					"internalType": "address",
					"name": "",
					"type": "address"
				}
			],
			"stateMutability": "view",
			"type": "function"
		},
		{
			"inputs": [
				{
					"internalType": "address",
					"name": "_to",
					"type": "address"
				},
				{
					"internalType": "uint256",
					"name": "_amount",
					"type": "uint256"
				}
			],
			"name": "giveAway",
			"outputs": [],
			"stateMutability": "nonpayable",
			"type": "function"
		},
		{
			"inputs": [
				{
					"internalType": "address",
					"name": "owner",
					"type": "address"
				},
				{
					"internalType": "address",
					"name": "operator",
					"type": "address"
				}
			],
			"name": "isApprovedForAll",
			"outputs": [
				{
					"internalType": "bool",
					"name": "",
					"type": "bool"
				}
			],
			"stateMutability": "view",
			"type": "function"
		},
		{
			"inputs": [
				{
					"internalType": "address",
					"name": "_user",
					"type": "address"
				}
			],
			"name": "isWhitelisted",
			"outputs": [
				{
					"internalType": "bool",
					"name": "",
					"type": "bool"
				}
			],
			"stateMutability": "view",
			"type": "function"
		},
		{
			"inputs": [],
			"name": "maxMintAmount",
			"outputs": [
				{
					"internalType": "uint256",
					"name": "",
					"type": "uint256"
				}
			],
			"stateMutability": "view",
			"type": "function"
		},
		{
			"inputs": [],
			"name": "maxMintAmountWhitelisted",
			"outputs": [
				{
					"internalType": "uint256",
					"name": "",
					"type": "uint256"
				}
			],
			"stateMutability": "view",
			"type": "function"
		},
		{
			"inputs": [],
			"name": "maxTokens",
			"outputs": [
				{
					"internalType": "uint256",
					"name": "",
					"type": "uint256"
				}
			],
			"stateMutability": "view",
			"type": "function"
		},
		{
			"inputs": [
				{
					"internalType": "uint256",
					"name": "_mintAmount",
					"type": "uint256"
				}
			],
			"name": "mint",
			"outputs": [],
			"stateMutability": "payable",
			"type": "function"
		},
		{
			"inputs": [],
			"name": "name",
			"outputs": [
				{
					"internalType": "string",
					"name": "",
					"type": "string"
				}
			],
			"stateMutability": "view",
			"type": "function"
		},
		{
			"inputs": [],
			"name": "nftPerAddressLimit",
			"outputs": [
				{
					"internalType": "uint256",
					"name": "",
					"type": "uint256"
				}
			],
			"stateMutability": "view",
			"type": "function"
		},
		{
			"inputs": [],
			"name": "notRevealedURI",
			"outputs": [
				{
					"internalType": "string",
					"name": "",
					"type": "string"
				}
			],
			"stateMutability": "view",
			"type": "function"
		},
		{
			"inputs": [],
			"name": "onlyWhitelisted",
			"outputs": [
				{
					"internalType": "bool",
					"name": "",
					"type": "bool"
				}
			],
			"stateMutability": "view",
			"type": "function"
		},
		{
			"inputs": [],
			"name": "owner",
			"outputs": [
				{
					"internalType": "address",
					"name": "",
					"type": "address"
				}
			],
			"stateMutability": "view",
			"type": "function"
		},
		{
			"inputs": [
				{
					"internalType": "uint256",
					"name": "tokenId",
					"type": "uint256"
				}
			],
			"name": "ownerOf",
			"outputs": [
				{
					"internalType": "address",
					"name": "",
					"type": "address"
				}
			],
			"stateMutability": "view",
			"type": "function"
		},
		{
			"inputs": [
				{
					"internalType": "bool",
					"name": "_state",
					"type": "bool"
				}
			],
			"name": "pause",
			"outputs": [],
			"stateMutability": "nonpayable",
			"type": "function"
		},
		{
			"inputs": [],
			"name": "paused",
			"outputs": [
				{
					"internalType": "bool",
					"name": "",
					"type": "bool"
				}
			],
			"stateMutability": "view",
			"type": "function"
		},
		{
			"inputs": [],
			"name": "price",
			"outputs": [
				{
					"internalType": "uint256",
					"name": "",
					"type": "uint256"
				}
			],
			"stateMutability": "view",
			"type": "function"
		},
		{
			"inputs": [
				{
					"internalType": "address[]",
					"name": "_users",
					"type": "address[]"
				}
			],
			"name": "removeFromWhitelist",
			"outputs": [],
			"stateMutability": "nonpayable",
			"type": "function"
		},
		{
			"inputs": [],
			"name": "renounceOwnership",
			"outputs": [],
			"stateMutability": "nonpayable",
			"type": "function"
		},
		{
			"inputs": [],
			"name": "reserved",
			"outputs": [
				{
					"internalType": "uint256",
					"name": "",
					"type": "uint256"
				}
			],
			"stateMutability": "view",
			"type": "function"
		},
		{
			"inputs": [],
			"name": "reveal",
			"outputs": [],
			"stateMutability": "nonpayable",
			"type": "function"
		},
		{
			"inputs": [],
			"name": "revealed",
			"outputs": [
				{
					"internalType": "bool",
					"name": "",
					"type": "bool"
				}
			],
			"stateMutability": "view",
			"type": "function"
		},
		{
			"inputs": [
				{
					"internalType": "address",
					"name": "from",
					"type": "address"
				},
				{
					"internalType": "address",
					"name": "to",
					"type": "address"
				},
				{
					"internalType": "uint256",
					"name": "tokenId",
					"type": "uint256"
				}
			],
			"name": "safeTransferFrom",
			"outputs": [],
			"stateMutability": "nonpayable",
			"type": "function"
		},
		{
			"inputs": [
				{
					"internalType": "address",
					"name": "from",
					"type": "address"
				},
				{
					"internalType": "address",
					"name": "to",
					"type": "address"
				},
				{
					"internalType": "uint256",
					"name": "tokenId",
					"type": "uint256"
				},
				{
					"internalType": "bytes",
					"name": "_data",
					"type": "bytes"
				}
			],
			"name": "safeTransferFrom",
			"outputs": [],
			"stateMutability": "nonpayable",
			"type": "function"
		},
		{
			"inputs": [
				{
					"internalType": "address",
					"name": "operator",
					"type": "address"
				},
				{
					"internalType": "bool",
					"name": "approved",
					"type": "bool"
				}
			],
			"name": "setApprovalForAll",
			"outputs": [],
			"stateMutability": "nonpayable",
			"type": "function"
		},
		{
			"inputs": [
				{
					"internalType": "string",
					"name": "_newBaseURI",
					"type": "string"
				}
			],
			"name": "setBaseURI",
			"outputs": [],
			"stateMutability": "nonpayable",
			"type": "function"
		},
		{
			"inputs": [
				{
					"internalType": "bytes4",
					"name": "interfaceId",
					"type": "bytes4"
				}
			],
			"name": "supportsInterface",
			"outputs": [
				{
					"internalType": "bool",
					"name": "",
					"type": "bool"
				}
			],
			"stateMutability": "view",
			"type": "function"
		},
		{
			"inputs": [],
			"name": "symbol",
			"outputs": [
				{
					"internalType": "string",
					"name": "",
					"type": "string"
				}
			],
			"stateMutability": "view",
			"type": "function"
		},
		{
			"inputs": [],
			"name": "teamMember1",
			"outputs": [
				{
					"internalType": "address",
					"name": "",
					"type": "address"
				}
			],
			"stateMutability": "view",
			"type": "function"
		},
		{
			"inputs": [],
			"name": "teamMember2",
			"outputs": [
				{
					"internalType": "address",
					"name": "",
					"type": "address"
				}
			],
			"stateMutability": "view",
			"type": "function"
		},
		{
			"inputs": [],
			"name": "teamMember3",
			"outputs": [
				{
					"internalType": "address",
					"name": "",
					"type": "address"
				}
			],
			"stateMutability": "view",
			"type": "function"
		},
		{
			"inputs": [],
			"name": "tokenCount",
			"outputs": [
				{
					"internalType": "uint256",
					"name": "",
					"type": "uint256"
				}
			],
			"stateMutability": "view",
			"type": "function"
		},
		{
			"inputs": [
				{
					"internalType": "uint256",
					"name": "tokenId",
					"type": "uint256"
				}
			],
			"name": "tokenURI",
			"outputs": [
				{
					"internalType": "string",
					"name": "",
					"type": "string"
				}
			],
			"stateMutability": "view",
			"type": "function"
		},
		{
			"inputs": [],
			"name": "totalSupply",
			"outputs": [
				{
					"internalType": "uint256",
					"name": "",
					"type": "uint256"
				}
			],
			"stateMutability": "view",
			"type": "function"
		},
		{
			"inputs": [
				{
					"internalType": "address",
					"name": "from",
					"type": "address"
				},
				{
					"internalType": "address",
					"name": "to",
					"type": "address"
				},
				{
					"internalType": "uint256",
					"name": "tokenId",
					"type": "uint256"
				}
			],
			"name": "transferFrom",
			"outputs": [],
			"stateMutability": "nonpayable",
			"type": "function"
		},
		{
			"inputs": [
				{
					"internalType": "address",
					"name": "newOwner",
					"type": "address"
				}
			],
			"name": "transferOwnership",
			"outputs": [],
			"stateMutability": "nonpayable",
			"type": "function"
		},
		{
			"inputs": [
				{
					"internalType": "address",
					"name": "",
					"type": "address"
				}
			],
			"name": "whitelistedAddressClaimed",
			"outputs": [
				{
					"internalType": "uint256",
					"name": "",
					"type": "uint256"
				}
			],
			"stateMutability": "view",
			"type": "function"
		},
		{
			"inputs": [
				{
					"internalType": "address",
					"name": "",
					"type": "address"
				}
			],
			"name": "whitelistedAddresses",
			"outputs": [
				{
					"internalType": "bool",
					"name": "",
					"type": "bool"
				}
			],
			"stateMutability": "view",
			"type": "function"
		},
		{
			"inputs": [],
			"name": "withdraw",
			"outputs": [],
			"stateMutability": "payable",
			"type": "function"
		}
	]
}